:02000002B0004C
:1040000000400B0050530B00000006000C0005029E
:084010000401A60F00000000EE
:0440180040500B0009
:10401C0009480A49884208B505D0094A824202D0AB
:10402C00121A00F055FF0748074A0021121A00F037
:10403C005DFF014808BD00BF38E60320B8520B00F5
:10404C00A8E60320A8E60320EDE7032070B5074E91
:10405C00074C00F081FBA41BA4080025AC4200D146
:10406C0070BD56F8043B98470135F7E760520B00DA
:10407C0084520B0000F021B808B500F023F8BDE81D
:10408C00084000F021BB00F0D5B900F0DBB9007896
:10409C00B0FA80F0400970470123037070470EB4EA
:1040AC0003B503AB002153F8042B019300F0A1FAE4
:1040BC0002B05DF804EB03B070470021112000F052
:1040CC003FBE000010B5084B084C188800F062FE8B
:1040DC00012120600E2000F044FE00F041FC22681B
:1040EC000349FFF7DCFF10BD38E60320B4E60320DC
:1040FC0054500B00044B0022C3E90022A2F580327D
:10410C009A60022000F012B9A8E6032008B5024B11
:10411C001B689B68019308BD6802030008B5024B3D
:10412C001B68DB68019308BD6802030008B5024BED
:10413C001B685B68019308BD2C02030008B5024B99
:10414C001B689B68019308BD2C02030008B5024B49
:10415C001B68DB68019308BD2C02030008B5024BF9
:10416C001B681B69019308BD2C02030008B5024BA8
:10417C001B681B6B019308BD2C02030008B5024B96
:10418C001B685B68019308BD1802030008B5024B5D
:10419C001B685B69019308BD1802030008B5024B4C
:1041AC001B685B6C019308BD4802030008B5024B09
:1041BC001B685B69019308BD6402030008B5024BE0
:1041CC001B68DB68019308BD3C02030008B5024B79
:1041DC001B681B69019308BD3C02030008B5024B28
:1041EC001B685B69019308BD3C02030008B5024BD8
:1041FC001B689B69019308BD3C02030008B5024B88
:10420C001B68DB69019308BD3C02030008B5024B37
:10421C001B681B6A019308BD3C02030008B5024BE6
:10422C001B689B6A019308BD3C02030008B5024B56
:10423C001B681B6C019308BD3C02030008B5024BC4
:10424C001B681B6A019308BD2802030008B5024BCA
:10425C001B685B6A019308BD2802030008B5024B7A
:10426C001B689B6A019308BD2802030008B5024B2A
:10427C001B68DB6A019308BD2802030008B5024BDA
:10428C001B681B6B019308BD2802030008B5024B89
:10429C001B685B6B019308BD2802030008B5024B39
:1042AC001B681B6C019308BD2802030008B5024B68
:1042BC001B68DB69019308BD3002030008B5024B93
:1042CC001B681B6A019308BD3002030008B5024B42
:1042DC001B681B68019308BD4C02030008B5024B18
:1042EC001B681B69019308BD4C02030008B5024B07
:1042FC001B685B69019308BD4C02030008B5024BB7
:10430C001B689B69019308BD4C02030008B5024B66
:10431C001B68DB69019308BD4C02030008B5024B16
:10432C001B681B6A019308BD4C02030008B5024BC5
:10433C001B685B68019308BD2002030008B5034BA2
:10434C001B68D3F88830019308BD000020020300DD
:10435C0008B5034B1B68D3F89430019308BD0000DB
:10436C002002030008B5024B1B685B68019308BD73
:10437C004002030008B5024B1B689B68019308BD03
:10438C004002030008B5024B1B68DB68019308BDB3
:10439C004002030008B5024B1B681B69019308BD62
:1043AC004002030008B5024B1B685B69019308BD12
:1043BC004002030008B5024B1B689B69019308BDC2
:1043CC004002030008B5024B1B68DB69019308BD72
:1043DC004002030008B5024B1B681B6A019308BD21
:1043EC004002030008B5024B1B681B6B019308BD10
:1043FC004002030008B5024B1B685B6B019308BDC0
:10440C004002030008B5024B1B681B6C019308BDEE
:10441C004002030008B5024B1B685B6C019308BD9E
:10442C004002030008B5024B1B68DB6B019308BD0F
:10443C004402030008B5024B1B681B68019308BDBE
:10444C001C02030008B5024B1B685B68019308BD96
:10445C001C02030008B5024B1B685B6A019308BD84
:10446C001C02030008B5024B1B681B6C019308BDB2
:10447C001C02030008B5024B1B685B6C019308BD62
:10448C001C020300002240681146FFF7A3BF002264
:10449C0040681146FFF7AEBF40680022FFF7A2BF8D
:1044AC004068002281F00101FFF78CBF00234068B7
:1044BC001A461946FFF77EBF002340681A46194674
:1044CC00FFF770BF002240681146FFF763BF002260
:1044DC0040681146FFF74EBF406800220221FFF7EB
:1044EC0051BF002340681A46FFF73CBF024B032222
:1044FC005A60024A1A607047B8E6032060500B00FD
:10450C0010B5044608462170FFF7D0FE0023636007
:10451C00204610BD054B02221A60054B054A9A60D5
:10452C000020C3E90000FFF701BF00BFCCE6032069
:10453C00C0E603200000FFFF024800230360FFF7E2
:10454C002DBE00BFD0E60320F8B506460D468F18E9
:10455C000024BD420CD0336815F8011B9B68304613
:10456C009847031E01DB1C44F3E7002C08BF1C46D4
:10457C002046F8BD13B50446084659B1019100F028
:10458C00EBFC23680199DB680246204602B0BDE8CB
:10459C001040184702B010BD03689B68184738B527
:1045AC000D210546FFF7F8FF0A2104462846FFF7C0
:1045BC00F3FF204438BD30B58BB00023012A8DF8B1
:1045CC00243098BF0A2209AC0D46B1FBF2F101FB75
:1045DC00125303F0FF03092B94BF30333733DBB294
:1045EC00AA4204F8013DEFD92146FFF7C3FF0BB0F7
:1045FC0030BD2DE9F04186B000AF05460E46381DA2
:10460C00142114463B60FFF725FF13280ED8391DE3
:10461C002846FFF7AFFF04461EB12846FFF7BFFF41
:10462C00044420461837BD46BDE8F08100F108036C
:10463C0023F00703E846ADEB030D2246411C3B6813
:10464C006846FFF707FF69462846FFF793FF0446C5
:10465C00C546E1E7014B024A1A607047D4E60320D5
:10466C0094500B00024B1A68024B1A60704700BF43
:10467C003CE60320D8E60320014B00229A607047E9
:10468C00DCE60320014B1860704700BF40E60320B6
:10469C0008B50B4B43B100F063F903681B699847ED
:1046AC00002801DDAFF30080064B43B100F0A4FB02
:1046BC0003681B699847002801DDAFF3008008BD33
:1046CC00000000000000000008B5FFF7E1FFFFF755
:1046DC005DFD014B186008BD40E703200548064A04
:1046EC00064908B5121A00F0F3FB054B054A1A608F
:1046FC0008BD00BF00F4032004F40320B4520B00E7
:10470C0000F403201E1C279A07B5002300931A46B9
:10471C006FF07701FFF71CFE03B05DF804FB00009F
:10472C0007B543880A2B08D0502B0BD1094B1B68BB
:10473C004BB103B05DF804EB1847FFF7E5FF03B08E
:10474C005DF804FB002300931A466FF07701FFF726
:10475C00FFFDF4E7F0E6032010B512480021FFF747
:10476C0089FE114B1A68114B9A42114B0CBF012256
:10477C0000221A7001D0FFF7B1FFFFF7FFFC0446CF
:10478C0000F0BCFB0B4B13B12046AFF300800021B3
:10479C000848FFF747FEBDE8104007480021FFF727
:1047AC00CDBD00BF91460B0000F403201E1C279AC0
:1047BC00ECE60320000000002D470B00704710B5FD
:1047CC0018210446FFF761FC204610BDF0B5037DAF
:1047DC00062B8DB00E4600F104074FF0000412D0EA
:1047EC0000F1080515F8011D0A223046FFF7E3FE1B
:1047FC00AF42044419D0002CF4D02E213046FFF7E0
:10480C00CBFE0444EEE72F236A4639460A208DF886
:10481C000040FFF7CBFC684600F09EFB3368024675
:10482C00DB68694630469847044620460DB0F0BD1B
:10483C0010B5054B0446112240F8043B002100F052
:10484C0055FB204610BD00BFBC500B000346074A69
:10485C0010B543F8042B01F1100251F8044B43F846
:10486C00044B9142F9D10A781A7010BDBC500B0060
:10487C0010B59DF8084044EA032343EA024242EA99
:10488C00016104234160037510BD000007B5064BA0
:10489C000360CB7800938B784A780978FFF7E8FFB0
:1048AC0003B05DF804FB00BFBC500B0041747047B3
:1048BC007047704708B50021007CFFF71FFD40EAE8
:1048CC00E07008BD08B50121007CFFF717FD40EA38
:1048DC00E07008BD08B5007CFFF708FD20EAE07029
:1048EC0008BD08B5007CFFF7F9FC20EAE07008BDB4
:1048FC0013B50446007C0191FFF7F8FC00280199E0
:10490C0001DC607C20B1207CFFF700FD20EAE07028
:10491C0002B010BD007CFFF701BD10B51421044698
:10492C00FFF7B3FB204610BD10B54FF47A73044665
:10493C0008460021C4E90113044B236001232074B1
:10494C0063741146FFF7C2FC204610BDD0500B001B
:10495C0010B514220446002100F0C8FA204610BD00
:10496C0010B50F4C88B003A8FFF7F2FF2178BFF306
:10497C005B8F11F001010FD120460191FFF787FBEE
:10498C00019948B103AA0748FFF7CEFF2046FFF76D
:10499C0083FB054800F096FA024808B010BD00BF32
:1049AC00F4E60320F8E60320BD480B007047417481
:1049BC00704708B5007CFFF731FC20EAE07008BDB9
:1049CC0008B5007CFFF702FC20EAE07008BD08B5D2
:1049DC00007CFFF70BFC40EAE07008BD08B5007CDA
:1049EC00FFF7FCFB40EAE07008BD007CFFF706BC5B
:1049FC0037B5457C04462DB1207C03B0BDE8304072
:104A0C00FFF7DCBB007C0191FFF708FC0028019943
:104A1C00F2DC284603B030BD10B514210446FFF774
:104A2C0034FB204610BD000010B54FF47A730446D9
:104A3C00084611460022C4E90123044B23600123DC
:104A4C0020746374FFF7F2FB204610BD00510B007D
:104A5C007047F8B5064615460C468F18BC4206D072
:104A6C00336814F8011B9B6830469847F6E72846D4
:104A7C00F8BD007C0022FFF7E1BB007C0021FFF7B2
:104A8C00E5BB007C0021FFF7E9BB007C0021FFF7B0
:104A9C00EDBB007C0021FFF7F1BB10B514210446DF
:104AAC00FFF7F3FA204610BD38B5044615464FF40F
:104ABC007A730022C4E90123094B21740846236050
:104ACC002946FFF7EBFBBF3008D16B69DB0705D537
:104ADC006868FFF7B7FCE868FFF7B4FC204638BD00
:104AEC0030510B00002240681146FFF753BC0022E6
:104AFC0040681146FFF76EBC002240681146FFF774
:104B0C0079BC40680022FFF76DBC4068002281F040
:104B1C000101FFF757BC002340681A461946FFF7FE
:104B2C0049BC002340681A461946FFF73BBC0022DB
:104B3C0040681146FFF71EBC406800220221FFF7B7
:104B4C0021BC002340681A46FFF70CBC024B042220
:104B5C005A60024A1A6070470CE7032058510B0048
:104B6C00002340681A46FFF7FDBB40680022022173
:104B7C00FFF708BC002240681146FFF7FBBB002280
:104B8C0040681146FFF706BC002340681A461946D8
:104B9C00FFF708BC002340681A461946FFF70ABC09
:104BAC0040680021FFF72EBC40680021FFF732BCA3
:104BBC004068002281F00101FFF704BC406800222C
:104BCC00FFF710BC002240681146FFF713BC00220F
:104BDC0040681146FFF7FEBB2DE9F04395B0144633
:104BEC000D460746FFF724FE00211C220DA800915C
:104BFC0000F07CF940230C9320466B460CAA002154
:104C0C00FFF78CFA044600284BD102460121686854
:104C1C00FFF7C0FB0221804622466868FFF7BAFB0B
:104C2C00009E81462146002E3BD0002939D1736865
:104C3C00022B03D00A2B11D0F669F4E7B8F1000F60
:104C4C00FAD0716906A8043107ADFFF71FFE0FCD2E
:104C5C003C1D0FC42B6823704146EDE7B9F1000FE2
:104C6C00EAD07469102201A800F040F906238DF8EF
:104C7C00143001AD04F108031834186859682A4639
:104C8C0003C20833A3421546F7D101A906A807AD04
:104C9C00FFF7DCFD0FCD3C1D0FC42B68237049467C
:104CAC00CAE70098FFF732FA384615B0BDE8F08332
:104CBC00024B034A1A6000225A60704714E7032023
:104CCC0094510B00232813B502D9002002B010BD5B
:104CDC00A0F10B03022B1AD8174C2178BFF35B8F72
:104CEC0011F001010BD120460191FFF7D0F9019988
:104CFC0028B11248FFF704FC2046FFF7CDF90F4B03
:104D0C001878FFF7DBFA0028DFD10120DEE7012855
:104D1C0009D800F0B1F80021007CFFF7B7FA80F059
:104D2C000100C0B2D2E709380128EED800F064F8CF
:104D3C00007CFFF76BFAF2E71CE7032020E7032067
:104D4C00232838B504460D460AD8FF2908D0FFF7AA
:104D5C00B9FF28B129462046BDE83840FFF7EEB927
:104D6C0038BD38B504460D46FFF7F0F9FF2810D0D2
:104D7C00062804D84D2323FA00F0C30709D4204693
:104D8C00FFF7A0FF28B129462046BDE83840FFF7C1
:104D9C00E5B938BD0D2810B504469CBF0E34A4B23D
:104DAC002046FFF78FFF50B103212046FFF7BEF9D5
:104DBC00032804D12046BDE81040FFF7D7B90020E6
:104DCC0010BD704738B5044614252A46002100F062
:104DDC008DF825804025074925812846258200F03D
:104DEC006FF804496060284600F06AF8E0602046DD
:104DFC0038BD00BFC8510B0030B50E4D2978BFF33C
:104E0C005B8F11F0010487B011D12846FFF73FF9F1
:104E1C0068B101A8FFF7D6FF01AA21460648FFF7A3
:104E2C0003FE2846FFF738F9044800F04BF8024817
:104E3C0007B030BD28E703202CE70320CF4D0B0033
:104E4C007047000038B50A4B0360012304464361E8
:104E5C000849202000F034F8202560600549A56041
:104E6C00284600F02DF8C4E90305204638BD00BFE4
:104E7C0018000100C8510B0030B50E4D2978BFF356
:104E8C005B8F11F0010487B011D12846FFF7FFF8B2
:104E9C0068B16846FFF7D6FF6A4621460648FFF719
:104EAC0003FE2846FFF7F8F8044800F00BF8024818
:104EBC0007B030BD44E7032048E703204D4E0B00FC
:104ECC00FFF7E1B8002301461A46184600F04CB82B
:104EDC000A44914200F1FF3300D1704710B511F82C
:104EEC00014B03F8014F9142F9D110BD0244034626
:104EFC00934200D1704703F8011BF9E738B5104B0A
:104F0C001D68AB6B0446B3B91820FFF793FA024641
:104F1C00A86320B90B4B0C484221FFF7A3FA0B49AD
:104F2C000B4BC0E900130B4B83600B2383810021D7
:104F3C000120C2E90401AB6B00221C615A6138BD2F
:104F4C0040E60320C9510B00E0510B000E33CDABF2
:104F5C0034126DE6ECDE0500034613F8012B002A33
:104F6C00FBD1181A013870472DE9F843DFF8B880E7
:104F7C000646D8F800001F460D46914600F056F83C
:104F8C00254B1C6834B9254C1C60254B13B11B6890
:104F9C00C4F8883063681F2B07DDD8F8000000F0D8
:104FAC0047F84FF0FF30BDE8F8834EB3D4F88800D3
:104FBC0088B91C4B23B9D8F8000000F038F8F0E79A
:104FCC004FF48470FFF736FA0028F4D00023C0E9C0
:104FDC004033C4F88800636840F8239001229A405B
:104FEC0000EB8301D0F800311343C0F80031022EDE
:104FFC00C1F8807002BFD0F804311343C0F80431FB
:10500C006368D8F800005A1C0233626044F82350DD
:10501C0000F00EF80020C6E7E8E703205CE7032069
:10502C000000000041440B00A4E6032070477047C9
:10503C00704700001D400B0059400B0081400B00D5
:10504C0085400B000000000025690D0000000000E9
:10505C0000000000EF440B00E5440B00DB440B00A8
:10506C00D1440B00C5440B00B9440B00AD4B0B00F5
:10507C00B54B0B00AD440B00A5440B009B440B003F
:10508C0091440B00E54B0B006170700025592D25E8
:10509C006D2D25645425483A254D3A2553257A0023
:1050AC0061736374696D650000000000000000000E
:1050BC00D9470B00C9470B00CB470B000000000081
:1050CC0000000000BF480B0027490B00FD480B00F7
:1050DC0055450B00EF480B00C1480B00D1480B00A5
:1050EC0021490B00E1480B00B9480B0000000000FF
:1050FC0000000000B9490B00254A0B00FD490B00CC
:10510C0055450B00CD490B00E9490B00DB490B0061
:10511C00F7490B00BB490B00BF490B000000000016
:10512C00000000005D4A0B00A74A0B007F4A0B00F1
:10513C005F4A0B00874A0B008F4A0B00974A0B0003
:10514C009F4A0B0000000000000000004F4B0B00BA
:10515C00454B0B003B4B0B00F14A0B002F4B0B004C
:10516C00234B0B00AD4B0B00B54B0B00174B0B003F
:10517C000F4B0B00054B0B00FB4A0B00E54B0B00D8
:10518C0000000000000000006D4B0B00774B0B0083
:10519C00814B0B008B4B0B00954B0B00A14B0B0069
:1051AC00AD4B0B00B54B0B00BD4B0B00C94B0B00B3
:1051BC00D14B0B00DB4B0B00E54B0B000052454574
:1051CC004E54206D616C6C6F632073756363656501
:1051DC00646564002F6D6E742F776F726B737061E2
:1051EC0063652F776F726B73706163652F474343F1
:1051FC002D31302D706970656C696E652F6A656E26
:10520C006B696E732D4743432D31302D706970657A
:10521C006C696E652D34385F323032303131323456
:10522C005F313630363138303634312F7372632F6C
:10523C006E65776C69622F6E65776C69622F6C692D
:10524C0062632F7374646C69622F72616E642E6377
:10525C000000000001410B00F9440B0021450B003C
:10526C0045450B0061460B0071460B0085460B0053
:10527C00594B0B00BD4C0B0000000000000000005F
:04528C00000000001E
:10529000040000001400000003000000474E550009
:1052A000C49A1D8CC54A8C40CC73E085C4D044663A
:0452B000CCFF165EBB
:0452B40000000000F6
:1052B80011000000AC500B0044E603200000000081
:1052C80000000000000000000000000000000000D6
:1052D80000000000000000000000000000000000C6
:1052E80000000000000000000000000000000000B6
:1052F80000000000000000000000000000000000A6
:105308000000000000000000000000000000000095
:10531800000000000000000000000000ECE703208F
:10532800FFFFFFFF00000102030405060708090A42
:105338000B0C0D0E0F101112131415161718191A3D
:085348001B1C1D1E1F20280084
:045350007856341245
:04000003B000401CED
:00000001FF
