:02000002B0004C
:1040000000400B00708B0B00000006000C00050246
:084010000401A60F00000000EE
:04401800A4770B007E
:10401C0009480A49884208B505D0094A824202D0AB
:10402C00121A03F0F5FA0748074A0021121A03F096
:10403C00FDFA014808BD00BF34E1032098860B004F
:10404C00E4E50320E4E50320EDE7032070B5074E1B
:10405C00074C02F0DBFAA41BA4080025AC4200D1EB
:10406C0070BD56F8043B98470135F7E73C860B00CA
:10407C0064860B0000F052BA08B500F0DFFABDE818
:10408C00084002F07BBA01F0EDBE01F0EBBE01F08E
:10409C00F1BE000008B5034A03490C2001F036FEBE
:1040AC00FEE700BFF9590B00B8770B000078B0FAA7
:1040BC0080F04009704701230370704770B50C1EE7
:1040CC00064615460BDA0A2A09D12D2102F086F98B
:1040DC006142EAB23046BDE8704002F098B9214620
:1040EC00F7E70EB403B503AB002153F8042B01938F
:1040FC0002F0ABF902B05DF804EB03B070470000BE
:10410C0038B584690A4B036005467CB16368013B92
:10411C0063605BB9236820469B689847A368013BA2
:10412C00A3601BB923682046DB689847284638BD36
:10413C00F4830B0010B50446FFF7E2FF20461C2168
:10414C00FFF7A5FF204610BD1FB52549044668465C
:10415C0002F067F802F07CFB22462249FFF7C1FF10
:10416C002149684602F0C7F8204A2149128851F8C3
:10417C0024102048002302F0F9FC28B31E491D48E6
:10418C0002F03BF91D491B4802F037F91C4919484C
:10419C0002F033F91B49174802F02FF91A49154858
:1041AC0002F018F9029913480A2202F030F911486A
:1041BC0002F017F90F4802F014F900990D4802F0BB
:1041CC0009F90C4802F00DF90A4802F04DFD10B146
:1041DC00084802F081FE684601F0D8FF04B010BD1B
:1041EC00737C0B00CD770B00DB770B0064E10320B5
:1041FC0050E103202CE6032007790B002F790B00EC
:10420C0055790B0092790B00A9790B001FB5254944
:10421C000446684602F005F802F01AFB22462249D1
:10422C00FFF75FFF2149684602F065F8204A2149F3
:10423C00128851F824102048002302F097FC28B370
:10424C001E491D4802F0D9F81D491B4802F0D5F84B
:10425C001C49194802F0D1F81B49174802F0CDF857
:10426C001A49154802F0B6F8029913480A2202F0CE
:10427C00CEF8114802F0B5F80F4802F0B2F80099E8
:10428C000D4802F0A7F80C4802F0ABF80A4802F00F
:10429C00EBFC10B1084802F01FFE684601F076FFF7
:1042AC0004B010BD737C0B00BA790B00C9790B00FC
:1042BC0064E1032050E103202CE6032007790B0076
:1042CC002F790B0055790B0092790B00A9790B0013
:1042DC002DE9F0418CB005460F4668467749DDF86C
:1042EC00488014461E4601F09CFFDFF828E2744912
:1042FC00DEF800307348744ADFF81CC2AB4219D1A7
:10430C000B68BB4216D10368A34213D11368B342A6
:10431C0010D1DCF8003043450CD102F099FA6B490E
:10432C00FFF7DFFE0024684601F030FF20460CB09A
:10433C00BDE8F081CEF800500F6004601660CCF838
:10434C000080002F00F0B5806149684601F097FFAE
:10435C00694608A801F088FF0A22414604A801F02A
:10436C00A0FF04A908A801F0E4FF5A4901F0EDFFF1
:10437C000146684601F069FF04A801F007FF08A890
:10438C0001F004FF694608A801F06EFF0A223146CD
:10439C0004A801F086FF04A908A801F0CAFF4E4941
:1043AC0001F0D3FF0146684601F04FFF04A801F06D
:1043BC00EDFE08A801F0EAFE694608A801F054FFDA
:1043CC000A22214604A801F06CFF04A908A801F0F8
:1043DC00B0FF424901F0B9FF0146684601F035FFD4
:1043EC0004A801F0D3FE08A801F0D0FE3C493D48DA
:1043FC000023502202F0BAFB0446002893D002F0AE
:10440C0027FA394901F0F9FF02F022FA009901F07C
:10441C00F4FF3649334801F0DDFF3549314801F0EE
:10442C00D9FF34492F4801F0D5FF0A222D482946DF
:10443C00FFF744FE30492B4801F0DFFF2F49294894
:10444C0001F0DBFF2E49274801F0C4FF2449254821
:10445C0001F0D3FF2B49234801F0BCFF0A2202993B
:10446C00204801F0D4FF1F4801F0BBFF26491D482E
:10447C0001F0C3FF1B4801F0B4FF0099194801F08B
:10448C00BCFF02F0E5F9214901F0B7FF02F0E0F9B9
:10449C001449044608A802F01FF80899204601F0B8
:1044AC00ACFF08A801F072FE0E4802F015FD0124C5
:1044BC0039E71749684601F0E2FE97E7737C0B0079
:1044CC0050E6032058E6032048E60320F57A0B005B
:1044DC00117B0B00237B0B002B7B0B003E7B0B001B
:1044EC00227D0B00E4E50320407B0B00577B0B0087
:1044FC00F97C0B00617B0B006A7B0B009E790B0037
:10450C007A7B0B00A9790B00817B0B00A87B0B003D
:10451C00337B0B004CE6032054E6032030B54148B6
:10452C0095B000F060FA3F4800F096FA02F032FFC6
:10453C0002F050FA02F08CF94FF4165102F078F9AF
:10454C000021122002F054FE3C220221364800F0D9
:10455C0061FF354800F076FE334800F0EBFE002199
:10456C00112002F045FE0321084602F041FE02F044
:10457C006FF94FF4165102F05BF9002001F04EFA7E
:10458C0043F698250446002001F048FA001B61F11F
:10459C000001A84271F1000307D202F059F902F0B0
:1045AC004BF910B901F04EFCEDE702F051F91F4C3C
:1045BC001F4D02F041F900231A461946606801F0BC
:1045CC00F9FB3822002106A803F030F84C230193A4
:1045DC00184B02930A220023CDE90323194601AAA2
:1045EC006068059301F006FC002360681A461946C2
:1045FC0001F0C0FB00226068114601F0C3FB28B13A
:10460C0002F026F92946FFF76CFDF3E74FF47A70B8
:10461C0001F088FF02F01CF90749FFF762FD15B0A5
:10462C0030BD00BF94E6032060E6032018E70320AA
:10463C00BC7B0B00B17B0B00717C0B0073B59B4DED
:10464C009B4C2A689B4E40F6B8339A424FF00003BD
:10465C00236040F3AB802168102910DC4FF47F02FB
:10466C0089B2304600F0A4FB1E21304600F0E3FB7B
:10467C00304600F0F1F9236801332360EBE78E48F4
:10468C008E4E00F0DFFD8C48012101F044F98A4880
:10469C00012101F045F900221146874801F038F953
:1046AC0087498548FFF71DFD01228348002101F051
:1046BC003AF98148012101F02EF97F48012101F0DE
:1046CC002FF923227C48002101F022F97D497A48F8
:1046DC00FFF707FD784800F02DFE02F0B9F87A4993
:1046EC00FFF7FFFC032002F0ADFD784B00384FF0D4
:1046FC00FF0418BF01201870009432682346012172
:10470C000520FFF7E5FD0121009432682346084699
:10471C00FFF7DEFD00943268234601210220FFF7EB
:10472C00D7FD00943268234601210320FFF7D0FD0A
:10473C0000943268234601210420FFF7C9FD644B25
:10474C00644C188802F091FD286002F081F82A6808
:10475C006149FFF7C6FC01210E2002F05AFD02F060
:10476C0077F82A685D49FFF7BCFC122002F06AFD5D
:10477C005B4B002814BF012200221A7008D002F0F3
:10478C0067F85849FFF7ADFC237883F001032370D9
:10479C0023780420002B00F08380FFF7D5FC02F077
:1047AC0057F85149FFF79DFC02B070BD21681029E4
:1047BC0010DC4FF4004289B2304600F0F9FA1E21A9
:1047CC00304600F038FB304600F046F923680133E0
:1047DC002360EBE73848454E00F034FD36480121A4
:1047EC0001F099F83448012101F09AF800221146A1
:1047FC00314801F08DF83E492F48FFF772FC012239
:10480C002D48002101F08FF82B48012101F083F88D
:10481C002948012101F084F823222748002101F0C6
:10482C0077F834492448FFF75CFC234800F082FDFC
:10483C0002F00EF83049FFF754FC032002F002FDA1
:10484C00224B00384FF0FF0418BF01201870009461
:10485C003268234601210520FFF73AFD012100941F
:10486C00326823460846FFF733FD0094326823462E
:10487C0001210220FFF72CFD009432682346012110
:10488C000320FFF725FD0094326823460121042004
:10489C00FFF71EFD0E4B188802F0E7FC28604EE770
:1048AC00FFF7B4FC01F0D4FF14497BE7ACE603201E
:1048BC00A8E6032094E6032060E603201CE6032010
:1048CC00BE7B0B00C87B0B00E57B0B005CE603207A
:1048DC004CE10320B0E60320747C0B00817C0B00C0
:1048EC005DE60320877C0B00977C0B0038E10320EE
:1048FC00247C0B002D7C0B00407C0B00A77C0B0058
:10490C0008B51B4802F032FB1A491B4801F089FC20
:10491C001A4A1B4B12681A601A4A1B4812685A60D2
:10492C001A4A12689A601A4A1268DA60194A1268AE
:10493C001A61194A12685A61184A12689A6102F08F
:10494C0015FB4FF0FF31164800F066FC02230822DD
:10495C001448102100F06EF8134B0022C3E900221A
:10496C00A2F580329A60BDE80840032001F0DEB960
:10497C002CE60320737C0B0084E603201CE603204A
:10498C0000E6032040E10320E4E5032048E1032096
:10499C0038E1032034E103203CE1032044E103200F
:1049AC0060E6032094E6032020E6032038B5044695
:1049BC00C0680D4608B101F05DFAA379062B0CBF57
:1049CC000420032010FB05F080B2A08001F04AFA0D
:1049DC00E06028B1A288002102F028FE658038BD75
:1049EC00A0806080FBE710B504460121C07902F07D
:1049FC00FFFBE079002102F00CFC0123237010BDB9
:104A0C0037B5037805460C461BB1C079002102F07E
:104A1C00EFFB2B78EC715BB1A0B20121019002F09D
:104A2C00E7FB0198002103B0BDE8304002F0F1BB78
:104A3C0003B030BD70B50025044616468371C0E93D
:104A4C00035505700572FFF7B1FF20463146FFF79D
:104A5C00D7FF204670BD0000C368002B00F0A48176
:104A6C002DE9F04F8379023BDBB2042B9CBFBF4A8C
:104A7C0052F8234085B0054688BF322400F0BEFFB3
:104A8C002B69C01AA042F9D3B94CAE88D4F80035C2
:104A9C001BB9D4F86035002B7EDBB64CD4F800354E
:104AAC0023B9D4F86035002BC0F26E81B24CD4F827
:104ABC000035002B00F04481EB79B04AB04C126801
:104ACC00190102EB0313575CAE495B78D1F8FC205B
:104ADC0042F08072C1F8FC20226803F01F0343EA05
:104AEC00471301273A432260A988D5F80C80D4F8E3
:104AFC0004909F40002944D04FF0000E72464FF0B6
:104B0C00A04118F801CB0820802663689B1A462B1D
:104B1C00FBD96268D1F808351CEA060F43EA070393
:104B2C00C1F808352FD063689B1A282BFBD9D1F814
:104B3C000C35013843EA07034FEA5606C1F80C3529
:104B4C00E3D1AB880EF1010E1FFA8EFE7345D8D857
:104B5C004FF4307103FB01F163689B1A462BFBD9B0
:104B6C006368A3EB09098945C0F0E4804FF49670A3
:104B7C0000F03CFFA988D5F80C80D4F804900029EB
:104B8C00BAD10A46E8E763689B1A112BCFD8636841
:104B9C009B1A112BF7D9CAE7D4F86435002BBFF652
:104BAC007CAFD4F86835002BBFF677AFD4F86C35F2
:104BBC00002BBFF672AF3601331D1846009301F07F
:104BCC0051F900283FF478AFAB88002B00F0ED8052
:104BDC00EA68013B12FA83F702F1FF3E002348F228
:104BEC00060248F20D011EF801CF1CF0800F0CBF1D
:104BFC0093468B461CF0400F0CBF16460E461CF01D
:104C0C00200F0CBF9046884603F10109CDF80880AF
:104C1C00019603F102081FFA89F9019E20F813B0DE
:104C2C001FFA88F820F81960029E20F8186003F12A
:104C3C0003081CF0100F1FFA88F80CBF93468B4624
:104C4C0020F818B003F104081CF0080F1FFA88F8BC
:104C5C000CBF93468B4620F818B003F105081CF0E6
:104C6C00040F1FFA88F80CBF93468B4620F818B037
:104C7C0003F1080A03F1060807339BB21CF0020F7C
:104C8C001FFA88F80CBF93468B46CDF80CA01CF08D
:104C9C00010F20F818B015BF20F8131020F81320BE
:104CAC001FFA8AF3BDF80C3077459CD1591C02339E
:104CBC0089B29BB249005B004FF400474752009AFF
:104CCC00C7522E4B56081F6800221423C4F8042523
:104CDC00C4F80C25C4F80835C4F81425C4F81025FC
:104CEC00C4F82005C4F82465C4F82825C4F82C257C
:104CFC00EB7907EB031C1B010121FE5C9CF80130D6
:104D0C0003F01F0343EA4613C4F86035C4F80015DA
:104D1C00C4F81021A160D4F81031002BFBD0002373
:104D2C004FF0FF32C4F81031C4F80035C4F86025D8
:104D3C0001F0A0F800F062FE286105B0BDE8F08F2C
:104D4C00D4F86035002BBFF6B7AED4F86435002B21
:104D5C00BFF6B2AED4F86835002BBFF6ADAED4F8C2
:104D6C006C35002BBFF6A8AE25E700BF307D0B00DD
:104D7C0000C001400010024000200240B4E60320B5
:104D8C00001000E000ED00E0D4F86435002BBFF615
:104D9C008DAED4F86835002BBFF688AED4F86C35E0
:104DAC00002BBFF683AE06E770470423022183E78E
:104DBC0043888B42F0B52DD9067AC2F30743C2F370
:104DCC000724D5B23EB1734374437543C3F3072331
:104DDC00C4F307242D0A90F806C0C768BCF1060F6F
:104DEC000CBF042603264E43ACF1020CB919BCF1DE
:104DFC00060F1DD8DFE80CF0041C08040F04040097
:104E0C00BC554B708D7005E0FE2B28BFFE23BB55A7
:104E1C004D708C70F0BDBB554C708D70037A120EBA
:104E2C0013B9D2B2CA70F5E75A43C2F30722F9E7B5
:104E3C00BB554C70E6E7037A4A1CD2B2934270B56C
:104E4C001FD0013B13F0FF03C4680CD0FF291FBF18
:104E5C00110201F1FF31B1FBF3F39BB204BF4FF62A
:104E6C00FF71B1FBF3F325468688291B89B28E426C
:104E7C0006D929785943C1F3072105F8011BF3E73B
:104E8C00027270BD08B500F069FD014B186008BDD9
:104E9C00B4E60320F0B5457EBDF81440022D69D070
:104EAC00032D00F09980012D6CD10589D2432A4441
:104EBC0012B2002A5DDBB0F90850954259DD002989
:104ECC00BEBF5B181BB20021B0F90A00CD18854299
:104EDC00C4BF431A1BB2002B4BDDC1F3C400DFF877
:104EEC0020C102EBC01211F00701DBB20CEB020087
:104EFC001AD0C1F10805404EEDB2AB42775D3FBF11
:104F0C00A5EB030EFF2646FA0EF637401CF802609E
:104F1C00012C0CBF3E43BE43AB420CF8026028D3BD
:104F2C0008390B44DBB28030072B19D9012C4FF018
:104F3C00FF3518BF0025EDB200F180011A46083A82
:104F4C00D2B2072A01F8805C01F18001F7D8A3F1F5
:104F5C000802C2F3C402013200EBC21003F00703D3
:104F6C003BB1264AD25C0378012C0CBF134393430C
:104F7C000370F0BD4589D2432A44CD180189491BE1
:104F8C0012B209B2002AF4DBB0F90A509542F0DDF6
:104F9C000029BEBF5B181BB20021B0F90870CE18F7
:104FAC00BE42C4BF6B1A1BB2002BE2DDD0108025B1
:104FBC0010FB05111248014402F007000122824047
:104FCC00012CD2B20B440CD18B42D2D011F8010B74
:104FDC00104301F8010CF7E7CD184189491B09B2C0
:104FEC0067E7D243D2B28B42C3D011F8010B104009
:104FFC0001F8010CF7E700BF70E1032068E1032022
:10500C0078E10320F0B5457EBDF81440022D34D074
:10501C00032D00F09B80012D37D1D5180289521B2E
:10502C0012B20029C0F29180B0F90A508D4240F3BF
:10503C008C80002ABEBF9B181BB20022B0F90870EE
:10504C00D618BE42C4BFAB1A1BB2002B7DDDC810F4
:10505C00802510FB05224548024401F00700012180
:10506C008140012CC9B2134475D19A426DD012F80B
:10507C00010B084302F8010CF7E70589C9432944E1
:10508C00D5184289521B09B212B200295DDBB0F966
:10509C0008508D4259DD002ABEBF9B181BB200225E
:1050AC00B0F90A00D5188542C4BF831A1BB2002B75
:1050BC004BDDC2F3C400DFF8B4C001EBC01112F039
:1050CC000702DBB20CEB01001AD0C2F10805284E26
:1050DC00EDB2AB42775D3FBFA5EB030EFF2646FA60
:1050EC000EF637401CF80160012C0CBF3E43BE434A
:1050FC00AB420CF8016028D3083A1344DBB2803081
:10510C00072B19D9012C4FF0FF3518BF0025EDB234
:10511C0000F180011A46083AD2B2072A01F8805CE5
:10512C0001F18001F7D8A3F10802C2F3C4020132E5
:10513C0000EBC21003F007033BB10E4AD25C0378BC
:10514C00012C0CBF134393430370F0BD4589C94335
:10515C00294409B265E7C943C9B29A42F5D012F89D
:10516C00010B084002F8010CF7E700BF78E10320BF
:10517C0070E1032068E1032070470000F8B50D1EB4
:10518C00064614461F462DDB00F0D2FBA84229DD53
:10519C00002C27DB304600F0CEFBA04222DD30464F
:1051AC0000F0C4FB02281ED0032825D0012804D10E
:1051BC003389E2431A442C4615B2002C2246B8BF60
:1051CC00E21DD210802112FB01550E49012204F080
:1051DC0007044B5702FA04F464B297420CBF234302
:1051EC00A3434B55F8BD318972890139E4434D1BFA
:1051FC0014442DB224B2E0E77389013B5B1B2546B6
:10520C001CB2DAE778E1032010B524210446FEF73E
:10521C003EFF204610BD000038B5402204460D4626
:10522C00802100F0A7FA064B2360FF2384F821307D
:10523C0063774FF6FF73E38384F82050204638BD24
:10524C004C7D0B0002484FF48062002102F0EEB955
:10525C0078E1032013B50B4C2178BFF35B8F11F071
:10526C0001010BD120460191FEF720FF019928B1D5
:10527C00054800F073FE2046FEF71DFF024802B001
:10528C0010BD00BFB8E60320BCE6032007B590F8BC
:10529C00223043B10191FFF7DDFF019903B05DF8B6
:1052AC0004EB00F00FBF0B46817F407F012203B05F
:1052BC005DF804EB01F0F0BF38B590F91D30013307
:1052CC0004460D461DD090F92100012180B201F059
:1052DC00A0FF94F91F00002180B201F09AFF94F90D
:1052EC002100002180B201F094FF29462046FFF7EF
:1052FC00CDFF94F921000121BDE8384080B201F0C6
:10530C0088BF02F047F894F91B1001F06DFB02F016
:10531C0041F8036800219B68984702F03BF803684A
:10532C0029469B68984702F035F8BDE8384001F0F3
:10533C0062BB0000F8B521210446FFF7BDFF002138
:10534C002046FFF7B9FF7F212046FFF7B5FF22214A
:10535C002046FFF7B1FF00212046FFF7ADFF0721E4
:10536C002046FFF7A9FF94F91D30294F01332AD0AD
:10537C0094F92100012180B201F04BFF94F91F0038
:10538C00012180B201F045FF94F92100002180B287
:10539C0001F03FFF012000F029FB4FF48065013D37
:1053AC0017F8011B2046ADB2FFF770FF002DF6D1A8
:1053BC00012000F01BFB94F921000121BDE8F8400D
:1053CC0080B201F026BF002501F0E4FF94F91B1018
:1053DC0001F00AFB01F0DEFF036840219B6898474F
:1053EC0005F11006B6B201F0D5FF0368795D9B6834
:1053FC0098476B1C9DB2AE42F5D101F0CBFF01F08A
:10540C00FAFAB6F5806F00D1F8BD3546DCE700BF7F
:10541C0078E1032038B590F91D300177013304464B
:10542C000D46C27600F0C98090F91F00012180B2B0
:10543C0001F0DEFE94F92100012180B201F0D8FECA
:10544C0094F82230002B00F0A68094F92100012161
:10545C0080B201F0DEFEFFF7FDFE012100F09CFDA5
:10546C00FFF7F8FE102100F007FEFFF7F3FE002116
:10547C0000F0A6FDFFF7EEFE00F07AFD94F9200097
:10548C00012180B201F0B4FE94F92000012180B218
:10549C0001F0BFFE012001F045F894F92000002135
:1054AC0080B201F0B6FE0A2001F03CF894F920001D
:1054BC00012180B201F0ADFE2046AE21FFF7FCFECB
:1054CC002046D521FFF7F8FE20468021FFF7F4FE99
:1054DC002046A821FFF7F0FE20463F21FFF7ECFE07
:1054EC002046D321FFF7E8FE20460021FFF7E4FE1B
:1054FC0020464021FFF7E0FE8D212046FFF7DCFE21
:10550C00012D0CBF102114212046FFF7D5FE20469B
:10551C002021FFF7D1FE20460021FFF7CDFE2046CB
:10552C00A121FFF7C9FE2046C821FFF7C5FE204682
:10553C00DA21FFF7C1FE20461221FFF7BDFE8121C3
:10554C002046FFF7B9FE012D0CBF9F21CF2120462D
:10555C00FFF7B2FED9212046FFF7AEFE012D0CBF9E
:10556C002221F1212046FFF7A7FE2046DB21FFF781
:10557C00A3FE20464021FFF79FFE2046A421FFF703
:10558C009BFE2046A621FFF797FE2046AF21BDE8E3
:10559C003840FFF791BE94F91D00012180B201F053
:1055AC0027FE94F91E00012180B201F021FE94F82F
:1055BC002230002B3FF462AF47E701F0EBFE01F025
:1055CC0009FA5BE72DE9F04F85B01F46BDF938802D
:1055DC00BDF83C30A8EB0209A7EB010AB9F1000FAA
:1055EC00B8BFC9F10009BAF1000FB8BFCAF1000A7F
:1055FC00D14583460C46154604DD3A462C464746B3
:10560C000D469046BC4205DD2A464546904622464C
:10561C003C4617463E1BB2B20092A8EB050282EA4A
:10562C00E271A1EBE271C6F3C03202FA86F645458F
:10563C00B4BF01224FF0FF32019176100292BC42AE
:10564C001CDCDBF800200393D145D2F81080C7BFD7
:10565C00294622462A4621465846C047019A039BB2
:10566C00B61AB1B236B2002E05DA029A1544009A77
:10567C0056182DB236B2013424B2E0E705B0BDE8BD
:10568C00F08F2DE9F347BDF82C800768BDF9289001
:10569C00CDF800800446FF6916468A461D46B84779
:1056AC002368CDF8008009F1FF323244DF6951469E
:1056BC002B46204612B2B8472368CDF800809F696C
:1056CC0032464B4651462046B8476B1E03EB0A0147
:1056DC002368CDF828809D6932464B4609B2204696
:1056EC00AC4602B0BDE8F047604737B5013B134408
:1056FC000468BDF8185001951BB2009364690B4601
:10570C00A04703B030BD37B5BDF818500468CDE9DB
:10571C000025013B0B4464691BB2A04703B030BDAC
:10572C002DE9F347BDF92890BDF82C80054692462B
:10573C000C46CE18B4420BDA2B68CDF800809F696A
:10574C0021464B46524628460134B84724B2F1E76D
:10575C0002B0BDE8F08713B502680191B0F90E10E4
:10576C000091546AB0F90C3000221146A04702B0E7
:10577C0010BD704730B54281C2814FF0FF3200241A
:10578C00054D426101224460056001818181046103
:10579C000283827630BD00BF80820B002DE9F04F72
:1057AC002DED028B8DB007460491BDF8601005916C
:1057BC00BDF864100691B0F90C1004989DF868506F
:1057CC00814252DDB7F90E1091424EDD062111FBDC
:1057DC000504002C49DD02EBC504002C45DD03EB70
:1057EC0083030B9393B2079308339BB20891002465
:1057FC000993052C1CBF2C4B0B9A079E16BF1B192B
:10580C0000239B5C0393049AABB20A9304FB05F34D
:10581C0013FA82F31BB204EB020A08EE103AB046FC
:10582C000FFA85F90FFA8AFA039BDB072FD5012DA6
:10583C003B681FD1D3F810B0059B32B251463846A5
:10584C00D847039B5B0803930A9B01369844099B3A
:10585C00B6B2B3421FFA88F8E6D1089B013B01347B
:10586C0013F0FF0364B20893C3D10DB0BDEC028BEF
:10587C00BDE8F08F059ACDE9009218EE101AD3F816
:10588C0024B00FFA88F24B463846D847D9E7DDE901
:10589C0005239342D5D0012D3B6803D1D3F810B02A
:1058AC00069BCAE7069AE6E77C7D0B0030B50A2911
:1058BC0085B0044607D1027E638A03EBC203638280
:1058CC000023238221E00D291FD0037E0293C38A7B
:1058DC000193838A0093B0F912200B46B0F9101093
:1058EC00FFF75CFF207E238A00EB400103EB4103B2
:1058FC00A17E1BB20246238239B1B4F90C106FF0B1
:10590C00050505FB00118B42D6DC012005B030BD2E
:10591C00018242827047012938BF0121017670470C
:10592C00C182818270478182C2827047407E7047FB
:10593C00B0F90C007047B0F90E00704708B5024B77
:10594C001B689B68019308BD6802030008B5024BF5
:10595C001B68DB68019308BD6802030008B5024BA5
:10596C001B681B68019308BD2C02030008B5024B91
:10597C001B685B68019308BD2C02030008B5024B41
:10598C001B689B68019308BD2C02030008B5024BF1
:10599C001B68DB68019308BD2C02030008B5024BA1
:1059AC001B681B69019308BD2C02030008B5024B50
:1059BC001B685B69019308BD2C02030008B5024B00
:1059CC001B681B6B019308BD2C02030008B5024B2E
:1059DC001B685B69019308BD6C02030008B5024BA0
:1059EC001B685B68019308BD1802030008B5024BE5
:1059FC001B68DB68019308BD1802030008B5024B55
:105A0C001B681B69019308BD1802030008B5024B03
:105A1C001B685B69019308BD1802030008B5024BB3
:105A2C001B68DB6D019308BD1802030008B5024B1F
:105A3C001B685B6C019308BD4802030008B5024B60
:105A4C001B685B69019308BD6402030008B5024B37
:105A5C001B681B6A019308BD6402030008B5024B66
:105A6C001B689B6A019308BD6402030008B5024BD6
:105A7C001B68DB68019308BD3C02030008B5024BB0
:105A8C001B681B69019308BD3C02030008B5024B5F
:105A9C001B685B69019308BD3C02030008B5024B0F
:105AAC001B689B69019308BD3C02030008B5024BBF
:105ABC001B68DB69019308BD3C02030008B5024B6F
:105ACC001B681B6A019308BD3C02030008B5024B1E
:105ADC001B689B6A019308BD3C02030008B5024B8E
:105AEC001B681B6C019308BD3C02030008B5024BFC
:105AFC001B68DB68019308BD2802030008B5024B44
:105B0C001B689B69019308BD2802030008B5024B72
:105B1C001B68DB69019308BD2802030008B5024B22
:105B2C001B681B6A019308BD2802030008B5024BD1
:105B3C001B685B6A019308BD2802030008B5024B81
:105B4C001B689B6A019308BD2802030008B5024B31
:105B5C001B68DB6A019308BD2802030008B5024BE1
:105B6C001B681B6B019308BD2802030008B5024B90
:105B7C001B685B6B019308BD2802030008B5024B40
:105B8C001B681B6C019308BD2802030008B5024B6F
:105B9C001B689B69019308BD3802030008B5024BD2
:105BAC001B68DB69019308BD3802030008B5024B82
:105BBC001B681B6A019308BD3802030008B5024B31
:105BCC001B689B6A019308BD3802030008B5024BA1
:105BDC001B681B6B019308BD3802030008B5024B10
:105BEC001B689B6B019308BD3802030008B5024B80
:105BFC001B681B68019308BD3002030008B5024BFB
:105C0C001B689B68019308BD3002030008B5024B6A
:105C1C001B68DB68019308BD3002030008B5024B1A
:105C2C001B681B69019308BD3002030008B5024BC9
:105C3C001B685B69019308BD3002030008B5024B79
:105C4C001B68DB69019308BD3002030008B5024BE9
:105C5C001B681B6A019308BD3002030008B5024B98
:105C6C001B685B6A019308BD3002030008B5024B48
:105C7C001B681B6C019308BD3002030008B5024B76
:105C8C001B685B6C019308BD3002030008B5024B26
:105C9C001B681B68019308BD4C02030008B5024B3E
:105CAC001B685B68019308BD4C02030008B5024BEE
:105CBC001B681B69019308BD4C02030008B5024B1D
:105CCC001B685B69019308BD4C02030008B5024BCD
:105CDC001B689B69019308BD4C02030008B5024B7D
:105CEC001B68DB69019308BD4C02030008B5024B2D
:105CFC001B681B6A019308BD4C02030008B5024BDC
:105D0C001B689B6A019308BD4C02030008B5024B4B
:105D1C001B685B6B019308BD6002030008B5024B66
:105D2C001B681B6D019308BD6002030008B5024B94
:105D3C001B685B68019308BD2002030008B5024B89
:105D4C001B685B69019308BD2002030008B5034B77
:105D5C001B68D3F88830019308BD000020020300B3
:105D6C0008B5034B1B68D3F89430019308BD0000B1
:105D7C002002030008B5024B1B685B68019308BD49
:105D8C004002030008B5024B1B689B68019308BDD9
:105D9C004002030008B5024B1B68DB68019308BD89
:105DAC004002030008B5024B1B681B69019308BD38
:105DBC004002030008B5024B1B685B69019308BDE8
:105DCC004002030008B5024B1B689B69019308BD98
:105DDC004002030008B5024B1B68DB69019308BD48
:105DEC004002030008B5024B1B681B6A019308BDF7
:105DFC004002030008B5024B1B689B6A019308BD67
:105E0C004002030008B5024B1B681B6B019308BDD5
:105E1C004002030008B5024B1B685B6B019308BD85
:105E2C004002030008B5024B1B681B6C019308BDB4
:105E3C004002030008B5024B1B685B6C019308BD64
:105E4C004002030008B5024B1B689B68019308BD18
:105E5C004402030008B5024B1B68DB6B019308BDC1
:105E6C004402030008B5024B1B681B68019308BD74
:105E7C001C02030008B5024B1B685B68019308BD4C
:105E8C001C02030008B5024B1B689B68019308BDFC
:105E9C001C02030008B5024B1B685B6A019308BD2A
:105EAC001C02030008B5024B1B68DB6B019308BD99
:105EBC001C02030008B5024B1B681B6C019308BD48
:105ECC001C02030008B5024B1B685B6C019308BDF8
:105EDC001C020300002240681146FFF783BF00221A
:105EEC0040681146FFF796BF40680022FFF78ABF53
:105EFC004068002281F00101FFF76CBF002340686D
:105F0C001A461946FFF75EBF002340681A46194629
:105F1C00FFF750BF002240681146FFF743BF002235
:105F2C0040681146FFF72EBF406800220221FFF7A0
:105F3C0031BF002340681A46FFF71CBF024B0322F7
:105F4C005A60024A1A607047C4E60320B8820B00FC
:105F5C000021FFF793BE0021FFF788BE10B5044661
:105F6C0008462170FFF76AFE00236360204610BDCF
:105F7C0013B504460078FFF7EEFF58B9207801906E
:105F8C004FF6FF71FFF732FE019802B0BDE81040EA
:105F9C00FFF7DEBF02B010BD13B5044600780191C7
:105FAC00FFF7D9FF019948B920780190FFF726FE39
:105FBC00019802B0BDE81040FFF7CABF02B010BD97
:105FCC0013B5044600780191FFF7C5FF019948B954
:105FDC0020780190FFF71AFE019802B0BDE810403E
:105FEC00FFF7B6BF02B010BD400830B518600024F2
:105FFC0018688842E5B206D90134082C02D0400852
:10600C001860F5E70725024B5B5D137030BD00BFD0
:10601C00EC820B002DE9F04188B000230446007897
:10602C0002930E461746FFF796FF054600BB94F801
:10603C0000800146142203A801F0F8FA0B232A462B
:10604C0003A94046ADF80C30FFF708FE04988DF814
:10605C00075002AB0DF1070207FB06F1FFF7C4FF77
:10606C0020789DF80710FFF7D9FD2078FFF770FF17
:10607C00029808B0BDE8F08138B5044600780D46AA
:10608C00FFF769FF0346D0B9616899B10C4A12F861
:10609C00010B854202D00133082BF8D10133DBB25E
:1060AC000122D9402046FFF7B5FF2078BDE83840E3
:1060BC00FFF74EBF20782946FFF7B0FDF5E738BD56
:1060CC00EC820B0008B50078FFF7B0FDC0B208BD3C
:1060DC00054B02221A60054B054A9A600020C3E961
:1060EC000000FFF723BE00BFD8E60320CCE6032058
:1060FC000000FFFF10B5044601F0E0FA0138231848
:10610C002046834206D90278197800F8011B03F85F
:10611C000129F6E710BD70B50C46911E22291DD839
:10612C00254630B9234430229D4210D205F8012B6C
:10613C00FAE7B0FBF2F602FB1600C1B2092894BFD5
:10614C0030315731C9B205F8011B3046E9E700235D
:10615C0020462B70FFF7CEFF204670BD0020FCE7D9
:10616C0038B5031E0C4615460EDAB3F1004F4FF04E
:10617C002D0214BF5842184601230A702A461944AE
:10618C00FFF7C9FF204638BD0123F9E710B50446D7
:10619C000068FFF76FFE204610BD10B5044600687E
:1061AC0008B1FFF767FE0023C4E90133236010BD7B
:1061BC0038B504460D4600680131FFF763FE10B197
:1061CC00C4E90005012038BD10B50368044623B1AD
:1061DC0043688B4201D3012010BD2046FFF7E8FF36
:1061EC000028F9D0A368002BF5D122681370F2E7D0
:1061FC0037B50D46114601920446FFF7E5FF019AAB
:10620C0028B92046FFF7C9FF204603B030BDA26075
:10621C002946206801F0FCF92268A3680021D154BA
:10622C00F2E7002313B5C0E900330446836003731F
:10623C0041B10846019101F041FA0199024620460C
:10624C00FFF7D6FF204602B010BD884210B50446B9
:10625C0005D00B682BB18A681946FFF7C9FF204699
:10626C0010BDFFF79AFFFAE710B500230446C0E90A
:10627C00003383600373FFF7E8FF204610BD13B5AE
:10628C00044659B10846019101F018FA01990246E9
:10629C002046FFF7ADFF204602B010BDFFF77DFF93
:1062AC00F9E710B504468AB00023C4E90033A360B3
:1062BC002373084601A9FFF753FF01A92046FFF7F6
:1062CC00DEFF20460AB010BD70B505460E4609B972
:1062DC00002070BD6AB1846814442146FFF774FF36
:1062EC000028F5D02868AB683146184401F0DEF977
:1062FC00AC600120EDE713B50446084651B101919D
:10630C0001F0DCF901990246204602B0BDE81040CC
:10631C00FFF7DABF02B010BD07B500238DF80410EB
:10632C00012201A98DF80530FFF7CEFF03B05DF80F
:10633C0004FB10B58A6809680446FFF7C5FF10B95D
:10634C002046FFF72AFF204610BD13B5044629B995
:10635C002046FFF722FF204602B010BD08460191EF
:10636C0001F0ACF9019902462046FFF7ADFF002879
:10637C00EED0F0E7024800230360FFF757BB00BFE5
:10638C00DCE60320F8B506460D468F180024BD4206
:10639C000CD0336815F8011B9B6830469847031ED8
:1063AC0001DB1C44F3E7002C08BF1C462046F8BD5B
:1063BC0013B50446084659B1019101F07FF92368E1
:1063CC000199DB680246204602B0BDE81040184730
:1063DC0002B010BD08B5FFF7EBFF08BD03689B6862
:1063EC00184738B50D210546FFF7F8FF0A2104467A
:1063FC002846FFF7F3FF204438BD38B50546FFF7B4
:10640C00D7FF04462846FFF7ECFF204438BD30B5D3
:10641C008BB00023012A8DF8243098BF0A2209ACD6
:10642C000D46B1FBF2F101FB125303F0FF03092BF4
:10643C0094BF30333733DBB2AA4204F8013DEFD9B5
:10644C002146FFF7B5FF0BB030BD2DE9F04186B00A
:10645C0000AF05460E46381D142114463B60FFF76D
:10646C0019FD13280ED8391D2846FFF7A1FF044645
:10647C001EB12846FFF7B5FF044420461837BD4629
:10648C00BDE8F08100F1080323F00703E846ADEB0B
:10649C00030D2246411C3B686846FFF7FBFC69462E
:1064AC002846FFF785FF0446C546E1E710B50446CC
:1064BC00FFF7ACFAE060236820465B699847002838
:1064CC0008DAFFF7A3FAE368C01AA3689842F2D37C
:1064DC004FF0FF3010BD000038B50D46074904469B
:1064EC00FFF79FFE2846FFF7E1FF002804DBC1B24F
:1064FC002046FFF711FFF5E7204638BD737C0B00F3
:10650C00014B024A1A607047E0E60320FC820B0044
:10651C00024B1A68024B1A60704700BF78E50320E3
:10652C00E4E603200021FFF709BC0000014B002228
:10653C009A607047E8E60320014B1860704700BF73
:10654C007CE5032008B50B4B43B100F081F90368DF
:10655C001B699847002801DDAFF30080064B43B15F
:10656C0000F0D8FE03681B699847002801DDAFF3E3
:10657C00008008BD000000000000000008B5FFF717
:10658C00E1FFFFF743FA014B186008BD40E7032019
:10659C000548064A064908B5121A01F039F8054BA8
:1065AC00054A1A6008BD00BF00F4032004F4032060
:1065BC0094860B0000F403201E1C279A07B50023B9
:1065CC0000931A466FF07701FFF7CAFB03B05DF832
:1065DC0004FB000007B543880A2B08D0502B0BD1C5
:1065EC00094B1B684BB103B05DF804EB1847FFF780
:1065FC00E5FF03B05DF804FB002300931A466FF02F
:10660C007701FFF7ADFBF4E7FCE6032010B5124869
:10661C000021FFF757FC114B1A68114B9A42114B92
:10662C000CBF012200221A7001D0FFF7B1FFFFF757
:10663C00D5F9044601F002F80B4B13B12046AFF329
:10664C00008000210848FFF705FCBDE81040074812
:10665C000021FFF77BBB00BF45650B0000F4032056
:10666C001E1C279AF8E6032000000000E1650B00D1
:10667C00704710B518210446FDF709FD204610BDE2
:10668C00F0B5037D062B8DB00E4600F104074FF0DC
:10669C00000412D000F1080515F8011D0A2230463D
:1066AC00FFF7B5FEAF42044419D0002CF4D02E21D4
:1066BC003046FFF793FE0444EEE72F236A46394633
:1066CC000A208DF80040FFF7B9F9684600F0F6FF94
:1066DC0033680246DB6869463046984704462046D4
:1066EC000DB0F0BD10B5054B0446112240F8043B2B
:1066FC00002100F09BFF204610BD00BF24830B003F
:10670C000346074A10B543F8042B01F1100251F867
:10671C00044B43F8044B9142F9D10A781A7010BD1E
:10672C0024830B00037D042B04D14068003818BF70
:10673C0001207047062B07D143683BB983682BB9FE
:10674C00C3681BB90069F1E700207047012070474E
:10675C0010B59DF8084044EA032343EA024242EA9A
:10676C00016104234160037510BD000007B5064BA1
:10677C000360CB7800938B784A780978FFF7E8FFB1
:10678C0003B05DF804FB00BF24830B004174704719
:10679C007047704708B50021007CFFF797FA40EA74
:1067AC00E07008BD08B50121007CFFF78FFA40EAC4
:1067BC00E07008BD08B5007CFFF780FA20EAE070B5
:1067CC0008BD08B5007CFFF771FA20EAE07008BD3F
:1067DC0013B50446007C0191FFF770FA002801996B
:1067EC0001DC607C20B1207CFFF778FA20EAE070B5
:1067FC0002B010BD007CFFF779BA10B51421044625
:10680C00FDF745FC204610BD10B54FF47A730446D5
:10681C0008460021C4E90113044B236001232074B2
:10682C0063741146FFF732FA204610BD38830B0013
:10683C00007C0022FFF732BA007CFFF75FBA10B57C
:10684C0014220446002100F0F1FE204610BD000089
:10685C0010B50F4C88B003A8FFF7F1FF2178BFF3F8
:10686C005B8F11F001010FD120460191FDF71EFC49
:10687C00019948B103AA0748FFF7C6FF2046FDF768
:10688C001AFC054800F0BEFE024808B010BD00BF5F
:10689C0000E7032004E703209D670B007047417459
:1068AC00704708B5007CFFF711F920EAE07008BDCD
:1068BC0008B5007CFFF7E2F820EAE07008BD08B5E7
:1068CC00007CFFF7EBF840EAE07008BD08B5007CEF
:1068DC00FFF7DCF840EAE07008BD007CFFF7E6B893
:1068EC0037B5457C04462DB1207C03B0BDE8304063
:1068FC00FFF7BCB8007C0191FFF7E8F8002801997C
:10690C00F2DC284603B030BD10B514210446FDF767
:10691C00BEFB204610BD000010B54FF47A73044640
:10692C00084611460022C4E90123044B23600123CD
:10693C0020746374FFF7D2F8204610BD68830B00F7
:10694C007047F8B5064615460C468F18BC4206D063
:10695C00336814F8011B9B6830469847F6E72846C5
:10696C00F8BD007C0022FFF7D9B8007C0021FFF7AE
:10697C00DDB8007C0021FFF7E1B8007C0021FFF7B7
:10698C00E5B8007C0021FFF7E9B810B514210446E6
:10699C00FDF77DFB204610BD38B5044615464FF477
:1069AC007A730022C4E90123094B21740846236041
:1069BC002946FFF7E3F8BF3008D16B69DB0705D533
:1069CC006868FFF757FAE868FFF754FA204638BDB5
:1069DC0098830B000023007C1A461946FFF786B8F3
:1069EC00007C0022FFF78AB8C9B2FFF7F9BF007C20
:1069FC000022FFF78BB80121FFF7F9BF13B503682D
:106A0C008DF80710DC6B01224FF0FF330DF10701FD
:106A1C00A04702B010BD10B40368DC6B4FF0FF331D
:106A2C00A4465DF8044B604713B5134602688DF815
:106A3C000710D46B0DF107010122A04702B010BD65
:106A4C0010B54369B3F88620B3F884309A420446F3
:106A5C0008D06369B3F88420511CA3F88410134444
:106A6C00187910BD03681B6998470028F1D14FF0C5
:106A7C00FF30F6E7704743691868C043C00F704792
:106A8C0070470000064B994210B500F10C0405D07C
:106A9C00084600F0A5FC002808BF0024204610BDC5
:106AAC00F4820B0010B5AC210446FDF7F0FA204639
:106ABC0010BDAC21FDF7EBBA2DE9F0414FF0000809
:106ACC0086B01C46C0F8048005460E461746414663
:106ADC00102202A800F0AAFD631C09D04FF47A73AF
:106AEC00B4FBF3F203FB1244CDE902285C4304949B
:106AFC00686910230093006802AB41F2050240F66E
:106B0C00FF71FFF743F8002807DAFFF7CBF90368AA
:106B1C006B60002006B0BDE8F08168690023006856
:106B2C003A463146FFF752F8031EEEDB1846F1E702
:106B3C0030B587B0044601AD6846FFF717FE0FCDA0
:106B4C0004340FC42B68237007B030BD70B54D6989
:106B5C00054B04468C3544F8043B06460FCD0FC458
:106B6C002B682370304670BD24830B002DE9F04355
:106B7C009846036893B00D460024DB6A0646174618
:106B8C00984728466B46224621460094FEF7DEFEC7
:106B9C000546002863D1009B002B4BD05B69002B72
:106BAC0048D006A8FFF79EFD009B5C696378022B1A
:106BBC0004D1211D06A8FFF7BBFF26E00A2B24D128
:106BCC001122294601A800F031FDA368002B38D012
:106BDC0004F108030DF1040C183418685968624666
:106BEC0003C20833A3429446F7D1062301A90CA88B
:106BFC008DF81430FFF784FD0DF1340CBCE80F0058
:106C0C0007AC0FC4DCF80030237006A8FFF78AFD30
:106C1C0080B1336807ADD3F82090124B0C930FCD95
:106C2C000DAC0FC42B6823703A4643460CA9304672
:106C3C00C84705460098FEF781FE284613B0BDE80C
:106C4C00F083E368002BC3D14FF6FF70D4F810909B
:106C5C00FEF7FCFE8145BBD104F11401AAE72546E1
:106C6C00E8E700BF24830B0038B543691A68002A93
:106C7C00054610DAB3F88620B3F884309A420AD16C
:106C8C0003681B699847044628B92B682846DB6AB9
:106C9C009847204638BD0120FCE710B54369B3F88E
:106CAC008620B3F884309A42044605D06369B3F861
:106CBC0084201344187910BD03681B699847002879
:106CCC00F4D14FF0FF30F6E7F8B543691746B3F847
:106CDC008620B3F884309A4205460E4616D0696970
:106CEC00B1F88430B1F88640E41ABC4228BF3C4667
:106CFC00043322461944304600F08AFC6A69B2F823
:106D0C0084302344A2F884302046F8BD03681B6904
:106D1C0098470028E3D14FF0FF34F5E74269002390
:106D2C00A2F884304269A2F8863070472DE9F04110
:106D3C001F4603680C46DB6A8AB005461646984720
:106D4C00237DD5F81480042B0CBF02200A200622C8
:106D5C000121FEF743FFC8F800006B691B68002B8C
:106D6C0008DA2B682846DB6A0024984720460AB0CC
:106D7C00BDE8F0812846FFF7D1FFB7B1002303A986
:106D8C00F8B20393ADF81030FEF720FE0028E8D1DE
:106D9C00686906230093006803AB41F20B0240F6CE
:106DAC00FF71FEF7F3FE0028DBD11C22002103A8A3
:106DBC0000F03CFC237D042B1DD14FF407733046AF
:106DCC00ADF80C30FEF74AFEADF80E006068FEF729
:106DDC003DFE04906B691C22186803A9FEF7E6FEC1
:106DEC000028BED104340FCC6D698C350FC52368D7
:106DFC002B700124BAE740F61C233046ADF80C305A
:106E0C00FEF72CFE05AEADF80E00231D04F11407A1
:106E1C0018685968324603C20833BB421646F7D18C
:106E2C00D8E7000030B54269B2F886308BB0044622
:106E3C002BB1B2F884209A4201D1FFF76FFF616940
:106E4C000868002818DBB1F886507F2D14D804315F
:106E5C000823C5F180022944FEF7B0FE002813DD9B
:106E6C006369B3F886200AB9A3F884206369B3F880
:106E7C0086201044A3F886006369B3F88600B3F843
:106E8C008430C01A0BB030BDFFF70CF803680B2B25
:106E9C00F2D0FFF707F803680B2BEDD02023002569
:106EAC00CDE90235FEF7FEFF03680193084B094953
:106EBC00009302AA2B463220FEF730FF6369186854
:106ECC00FEF76CFE63694FF0FF321A60D4E700BF27
:106EDC00BF830B00B8830B0010B5436904461868D8
:106EEC00002801DBFEF75AFE63694FF0FF321A608F
:106EFC006069112200218C3000F098FB2046BDE81F
:106F0C001040FFF70BBF10B5002304460160C0F81A
:106F1C0084308830FFF7E6FB204610BD73B50023A4
:106F2C004FF47A72C0E901320E4A03610260436188
:106F3C000446AC200191FDF7A6F8051E05F10C06E0
:106F4C0008D00123C5E90133074B01992B6030466A
:106F5C00FFF7D9FF2046C4E90565FFF7DFFE02B055
:106F6C0070BD00BFF4830B00D8830B0010B54FF03D
:106F7C00FF310446FFF7D2FF204610BD10B5044682
:106F8C000068002801DBFEF709FE204610BD0C301E
:106F9C00FFF7F4BF002240681146FEF703BF002242
:106FAC0040681146FEF71EBF002240681146FEF7EE
:106FBC0031BF40680022FEF725BF4068002281F0F7
:106FCC000101FEF707BF002340681A461946FEF779
:106FDC00F9BE002340681A461946FEF7EBBE0022A4
:106FEC0040681146FEF7CEBE406800220221FEF733
:106FFC00D1BE002340681A46FEF7BCBE024B0422E9
:10700C005A60024A1A60704718E7032040840B004C
:10701C00002340681A46FEF7ADBE406800220221EC
:10702C00FEF7B8BE002240681146FEF7ABBE002248
:10703C0040681146FEF7B6BE002340681A46194652
:10704C00FEF7B8BE002340681A461946FEF7BABED2
:10705C0040680021FEF7E6BE40680021FEF7EABE5C
:10706C004068002281F00101FEF7B4BE40680022A6
:10707C00FEF7C8BE002240681146FEF7CBBE0022C8
:10708C0040681146FEF7AEBE2DE9F04395B01446AC
:10709C000D460746FFF726FB00211C220DA8009188
:1070AC0000F0C4FA40230C9320466B460CAA002136
:1070BC00FEF74CFC044600284BD1024601216868BF
:1070CC00FEF770FE0221804622466868FEF76AFED3
:1070DC00009E81462146002E3BD0002939D1736891
:1070EC00022B03D00A2B11D0F669F4E7B8F1000F8C
:1070FC00FAD0716906A8043107ADFFF737FB0FCD45
:10710C003C1D0FC42B6823704146EDE7B9F1000F0D
:10711C00EAD07469102201A800F088FA06238DF8D1
:10712C00143001AD04F108031834186859682A4664
:10713C0003C20833A3421546F7D101A906A807AD2F
:10714C00FFF7DEFA0FCD3C1D0FC42B6823704946A8
:10715C00CAE70098FEF7F2FB384615B0BDE8F0839D
:10716C00024B034A1A6000225A60704720E7032042
:10717C007C840B00232813B502D9002002B010BD6B
:10718C00A0F10B03022B1AD8174C2178BFF35B8F9D
:10719C0011F001010BD120460191FCF787FF0199F9
:1071AC0028B11248FEF7DAFE2046FCF784FF0F4B9D
:1071BC001878FEF74BFD0028DFD10120DEE701280F
:1071CC0009D800F0E7F80021007CFEF7CFFC80F036
:1071DC000100C0B2D2E709380128EED800F09AF8C5
:1071EC00007CFEF76BFCF2E7B8E60320BCE603205C
:1071FC00232838B504460D460AD8FF2908D0FFF7D6
:10720C00B9FF28B129462046BDE83840FEF7B6BB89
:10721C0038BD38B504460D46FEF7B8FBFF2810D034
:10722C00062804D84D2323FA00F0C30709D42046BE
:10723C00FFF7A0FF28B129462046BDE83840FEF7ED
:10724C00ADBB38BD10B50446FEF7A0FB031FDBB287
:10725C00012B08D92046FFF78DFF20B12046BDE851
:10726C001040FEF7A3BB002010BD0D2810B504463E
:10727C009CBF0E34A4B22046FFF77CFF50B1032113
:10728C002046FEF773FB032804D12046BDE81040CE
:10729C00FEF794BB002010BD2DE9F04190461F462F
:1072AC00072406460D46C4F10701B8F1000F12D1B0
:1072BC0047FA01F101F001013046FFF7AAFF012165
:1072CC002846FFF7A6FF00212846FFF7A2FF013C46
:1072DC00E9D2BDE8F08147FA04F1EBE77047000012
:1072EC0038B5044614252A46002100F09FF9258064
:1072FC004025074925812846258200F06FF804496E
:10730C006060284600F06AF8E060204638BD00BF97
:10731C00B0840B0030B50E4D2978BFF35B8F11F0A4
:10732C00010487B011D12846FCF7C0FE68B101A852
:10733C00FFF7D6FF01AA21460648FFF7EDFA2846CB
:10734C00FCF7B9FE044800F05DF9024807B030BD07
:10735C0028E703202CE70320E9720B00704700009C
:10736C0038B50A4B036001230446436108492020C9
:10737C0000F034F8202560600549A560284600F02F
:10738C002DF8C4E90305204638BD00BF18000100E4
:10739C00B0840B0030B50E4D2978BFF35B8F11F024
:1073AC00010487B011D12846FCF780FE68B168460D
:1073BC00FFF7D6FF6A4621460648FFF7EDFA284646
:1073CC00FCF779FE044800F01DF9024807B030BD07
:1073DC0044E7032048E7032069730B00FCF755BE14
:1073EC00014900F0F9B800BFCC840B007FB5002434
:1073FC001023CDE90234036815469E6912686B466A
:10740C00CDE90044B0479DF8043003F00603062B89
:10741C0003BF009B2B600120204604B070BD009878
:10742C00904214BF012006207047000010B5034B9A
:10743C000360044600F0CDF8204610BD0C850B000F
:10744C0010B50446FFF7F2FF20460821FCF71FFE9B
:10745C00204610BD2DE9F0411F46DDE90834DDF86A
:10746C00188098450646154607D1079900F0B4F8E0
:10747C0018B165710020BDE8F0813946304600F046
:10748C00ABF80028F6D00123C4F800802571A37155
:10749C00F0E738B515461C4600F09EF820B10823DD
:1074AC00E36006232560237138BD73B505460C4691
:1074BC0001921E4600F090F850B9032E08D82368AC
:1074CC00019A5B692946204602B0BDE87040184716
:1074DC0002B070BD10B5034B03600446FFF7A6FF66
:1074EC00204610BD6C850B0010B50446FFF7F2FF6B
:1074FC0020460C21FCF7CBFD204610BDF7B5089FAC
:10750C00974205460E4614460AD0A86802680897AA
:10751C00156A31462246AC4603B0BDE8F0406047E0
:10752C001946019300F058F8019B0028EDD0062075
:10753C0003B0F0BD2DE9F14F0D461946DDE90A4BBC
:10754C00DDE90CA681461746984600F045F890B147
:10755C00002D3460377109DB61198A450CBF062197
:10756C000121B171002001B0BDE8F08F0235F9D1D5
:10757C000123B371F6E7544506D15946484600F04D
:10758C002BF808B17771EDE7D9F808000368CDE95D
:10759C000CA6CDE90A4BDC693A4643462946A4467B
:1075AC0001B0BDE8F04F60472DE9F04107460C46AD
:1075BC0015461E46FFF76DFF48B9B86803689F690A
:1075CC002A4633462146BC46BDE8F0416047BDE83B
:1075DC00F081704700207047814208B50ED040689A
:1075EC0003782A2B0CD049680B782A2B08BF013161
:1075FC0000F052F8B0FA80F0400908BD0120FCE719
:10760C000020FAE7002301461A46184600F05EB83F
:10761C000A44914200F1FF3300D1704710B511F8C4
:10762C00014B03F8014F9142F9D110BD02440346BE
:10763C00934200D1704703F8011BF9E738B5104BA2
:10764C001D68AB6B0446B3B91820FEF70BFC024661
:10765C00A86320B90B4B0C484221FEF72BFC0B49BD
:10766C000B4BC0E900130B4B83600B238381002170
:10767C000120C2E90401AB6B00221C615A6138BDC8
:10768C007CE50320A5850B00BC850B000E33CDAB30
:10769C0034126DE6ECDE050010F8012B11F8013BFD
:1076AC00012A28BF9A42F7D0D01A7047034611F826
:1076BC00012B03F8012B002AF9D17047034613F86C
:1076CC00012B002AFBD1181A013870472DE9F84319
:1076DC00DFF8B8800646D8F800001F460D469146E4
:1076EC0000F056F8254B1C6834B9254C1C60254B12
:1076FC0013B11B68C4F8883063681F2B07DDD8F8FA
:10770C00000000F047F84FF0FF30BDE8F8834EB3AF
:10771C00D4F8880088B91C4B23B9D8F8000000F0C5
:10772C0038F8F0E74FF48470FEF79CFB0028F4D097
:10773C000023C0E94033C4F88800636840F8239004
:10774C0001229A4000EB8301D0F800311343C0F8BA
:10775C000031022EC1F8807002BFD0F804311343FF
:10776C00C0F804316368D8F800005A1C0233626018
:10777C0044F8235000F00EF80020C6E7E8E7032099
:10778C005CE7032000000000715E0B00E0E50320C5
:10779C0070477047704700001D400B0059400B00AC
:1077AC0081400B0085400B000000000043616C6CB5
:1077BC00206F6E2070757265207669727475616CBD
:1077CC00005377697463684F4E202569200A003C8A
:1077DC003F786D6C2076657273696F6E3D22312E29
:1077EC00302220656E636F64696E673D2275746626
:1077FC002D38223F3E3C733A456E76656C6F706552
:10780C0020786D6C6E733A733D22687474703A2FE5
:10781C002F736368656D61732E786D6C736F617017
:10782C002E6F72672F736F61702F656E76656C6F3C
:10783C0070652F2220733A656E636F64696E6753AF
:10784C0074796C653D22687474703A2F2F73636879
:10785C00656D61732E786D6C736F61702E6F7267CE
:10786C002F736F61702F656E636F64696E672F2263
:10787C003E3C733A426F64793E3C753A53657442B0
:10788C00696E617279537461746520786D6C6E7376
:10789C003A753D2275726E3A42656C6B696E3A733D
:1078AC006572766963653A62617369636576656E64
:1078BC00743A31223E3C42696E6172795374617440
:1078CC00653E313C2F42696E617279537461746507
:1078DC003E3C2F753A53657442696E6172795374EC
:1078EC006174653E3C2F733A426F64793E3C2F7352
:1078FC003A456E76656C6F70653E00504F53542060
:10790C002F75706E702F636F6E74726F6C2F626157
:10791C007369636576656E743120485454502F3109
:10792C002E3100436F6E74656E742D547970653A08
:10793C0020746578742F786D6C3B2063686172736A
:10794C0065743D7574662D3800534F415041435456
:10795C00494F4E3A202275726E3A42656C6B696ED5
:10796C003A736572766963653A62617369636576C9
:10797C00656E743A312353657442696E6172795342
:10798C00746174652200436F6E6E656374696F6E0B
:10799C003A206B6565702D616C69766500436F6E7E
:1079AC0074656E742D4C656E6774683A200073773D
:1079BC00697463684F4646202569200A003C3F786D
:1079CC006D6C2076657273696F6E3D22312E30229C
:1079DC0020656E636F64696E673D227574662D3821
:1079EC00223F3E3C733A456E76656C6F706520782D
:1079FC006D6C6E733A733D22687474703A2F2F73EA
:107A0C006368656D61732E786D6C736F61702E6F2A
:107A1C0072672F736F61702F656E76656C6F706512
:107A2C002F2220733A656E636F64696E67537479A5
:107A3C006C653D22687474703A2F2F736368656DA2
:107A4C0061732E786D6C736F61702E6F72672F730C
:107A5C006F61702F656E636F64696E672F223E3C99
:107A6C00733A426F64793E3C753A53657442696E61
:107A7C00617279537461746520786D6C6E733A75AC
:107A8C003D2275726E3A42656C6B696E3A73657223
:107A9C00766963653A62617369636576656E743A9B
:107AAC0031223E3C42696E61727953746174653E59
:107ABC00303C2F42696E61727953746174653E3C3F
:107ACC002F753A53657442696E617279537461749F
:107ADC00653E3C2F733A426F64793E3C2F733A45B6
:107AEC006E76656C6F70653E004E6F204368616EFC
:107AFC006765202D2043616E63656C6C696E672031
:107B0C00434D440A007B226F6E223A747275652CC9
:107B1C0022736174223A002C22627269223A002C80
:107B2C0022687565223A007B226F6E223A66616C80
:107B3C0073657D0053656E64696E6720436F6D6D70
:107B4C00616E6420746F2048756500505554202F69
:107B5C006170692F002F6C69676874732F002F7325
:107B6C007461746520485454502F312E3100486F85
:107B7C0073743A2000436F6E74656E742D54797073
:107B8C00653A20746578742F706C61696E3B63681C
:107B9C0061727365743D5554462D380046726F6D95
:107BAC002048756500496F544E6574776F726B0091
:107BBC002E00556E737461626C652100747269706D
:107BCC007065642070726F63656564207769746892
:107BDC002063617574696F6E002A2A2A2A2A2A2A60
:107BEC002A2A2A2A2A2A2A2A2A2A2A2A2A2A2A2AE9
:107BFC002A2A2A2A2A2A2A2A2A2A2A2A2A2A2A2AD9
:107C0C002A2A2A2A2A2A2A2A2A2A2A2A756E7374A6
:107C1C0061626C770A0A0A005365637572656421A8
:107C2C000061637469766520616E64206F722069EF
:107C3C00646C65002A2A2A2A2A2A2A2A2A2A2A2A0B
:107C4C002A2A2A2A2A2A2A2A2A2A2A2A2A2A2A2A88
:107C5C002A2A2A2A2A2A2A2A2A2A2A2A2A736563BB
:107C6C00757265640A0A0A0073656E7364617461E7
:107C7C0025640A0A0025690D0A0A000A0A6275744D
:107C8C00746F6E32646F776E0A0A000A0A746F673B
:107C9C00676C6572747275650A0A000A0A746F67FC
:107CAC00676C657266616C73650A0A003139322E35
:107CBC003136382E312E3330003139322E313638C0
:107CCC002E312E3331003139322E3136382E312EC1
:107CDC003332003139322E3136382E312E333300D7
:107CEC003139322E3136382E312E3334004D516C21
:107CFC005A7A69524F30576169354D734D486C6CE7
:107D0C003878415541517177383551727238744D0C
:107D1C003337463354003139322E3136382E312E2A
:107D2C00350000002C01000018000000F4010000D8
:107D3C002C010000500000000000000000000000BA
:107D4C0085510B0015520B00B9580B0091630B00B9
:107D5C0089510B00D1550B0011500B00A14E0B009B
:107D6C008F560B002D570B0063570B007F570B00E2
:107D7C0000000000003E5B4F5B3E3E6B4F6B3E1CB9
:107D8C003E7C3E1C183C7E3C181C577D571C1C5ED0
:107D9C007F5E1C00183C1800FFE7C3E7FF001824A7
:107DAC001800FFE7DBE7FF30483A060E2629792951
:107DBC0026407F050507407F05253F5A3CE73C5A86
:107DCC007F3E1C1C08081C1C3E7F14227F22145F63
:107DDC005F005F5F06097F017F006689956A6060BE
:107DEC0060606094A2FFA29408047E040810207EB8
:107DFC00201008082A1C08081C2A08081E1010103D
:107E0C00100C1E0C1E0C30383E3830060E3E0E0682
:107E1C00000000000000005F0000000700070014D5
:107E2C007F147F14242A7F2A122313086462364994
:107E3C005620500008070300001C2241000041227C
:107E4C001C002A1C7F1C2A08083E08080080703081
:107E5C0000080808080800006060002010080402F0
:107E6C003E5149453E00427F4000724949494621F6
:107E7C0041494D331814127F1027454545393C4A6A
:107E8C004949314121110907364949493646494981
:107E9C00291E0000140000004034000000081422C9
:107EAC004114141414140041221408020159090637
:107EBC003E415D594E7C1211127C7F494949363E38
:107ECC00414141227F4141413E7F494949417F091E
:107EDC000909013E414151737F0808087F00417F29
:107EEC0041002040413F017F081422417F40404027
:107EFC00407F021C027F7F0408107F3E4141413EBF
:107F0C007F090909063E4151215E7F091929462640
:107F1C004949493203017F01033F4040403F1F2044
:107F2C0040201F3F4038403F63140814630304781B
:107F3C0004036159494D43007F414141020408103B
:107F4C0020004141417F0402010204404040404076
:107F5C00000307080020545478407F2844443838E4
:107F6C0044444428384444287F3854545418000856
:107F7C007E090218A4A49C787F0804047800447D30
:107F8C0040002040403D007F1028440000417F40CD
:107F9C00007C047804787C08040478384444443821
:107FAC00FC1824241818242418FC7C080404084801
:107FBC005454542404043F44243C4040207C1C2052
:107FCC0040201C3C4030403C44281028444C9090AD
:107FDC00907C4464544C4400083641000000770007
:107FEC0000004136080002010204023C2623263C14
:107FFC001EA1A161123A4040207A3854545559219F
:10800C005555794121545478412155547840205488
:10801C005579400C1E5272123955555559395454D4
:10802C00545939555454580000457C410002457D43
:10803C00420001457C40F0292429F0F0282528F045
:10804C007C545545002054547C547C0A097F493299
:10805C00494949323248484832324A4848303A4114
:10806C0041217A3A42402078009DA0A07D394444B9
:10807C0044393D4040403D3C24FF2424487E494344
:10808C00662B2FFC2F2BFF0929F620C0887E0903B5
:10809C0020545479410000447D413048484A3238DC
:1080AC004040227A007A0A0A727D0D19317D262908
:1080BC00292F28262929292630484D402038080800
:1080CC00080808080808382F10C8ACBA2F10283434
:1080DC00FA00007B000008142A142222142A140827
:1080EC00AA005500AAAA55AA55AA000000FF001024
:1080FC001010FF00141414FF001010FF00FF1010DC
:10810C00F010F0141414FC001414F700FF0000FF1E
:10811C0000FF1414F404FC141417101F10101F107B
:10812C001F1414141F00101010F0000000001F107A
:10813C001010101F10101010F010000000FF101085
:10814C0010101010101010FF10000000FF14000091
:10815C00FF00FF00001F10170000FC04F41414179C
:10816C0010171414F404F40000FF00F71414141482
:10817C00141414F700F7141414171410101F101FF4
:10818C00141414F4141010F010F000001F101F0041
:10819C0000001F14000000FC140000F010F0101080
:1081AC00FF10FF141414FF141010101F0000000017
:1081BC00F010FFFFFFFFFFF0F0F0F0F0FFFFFF000B
:1081CC0000000000FFFF0F0F0F0F0F38444438441E
:1081DC007C2A2A3E147E02020606027E027E02637E
:1081EC00554941633844443C04407E201E2006021D
:1081FC007E020299A5E7A5991C2A492A1C4C7201FA
:10820C00724C304A4D4D303048784830BC625A463A
:10821C003D3E494949007E0101017E2A2A2A2A2A2B
:10822C0044445F444440514A444040444A51400015
:10823C0000FF0103E080FF000008086B6B0836129A
:10824C00362436060F090F0600001818000000101F
:10825C0010003040FF0101001F01011E00191D1705
:10826C0012003C3C3C3C0000000000000000000000
:10827C00000000000000000000000000B9580B00D6
:10828C0091630B00A1400B00D1550B00F7560B006E
:10829C0013570B008F560B002D570B0063570B0019
:1082AC007F570B0000000000000000003F5F0B0038
:1082BC00355F0B002B5F0B00215F0B00155F0B0074
:1082CC00095F0B005D700B0065700B00FD5E0B0011
:1082DC00F55E0B00EB5E0B00E15E0B0095700B0086
:1082EC0000081018202830380000000000000000A2
:1082FC006170700025592D256D2D25645425483A43
:10830C00254D3A2553257A0061736374696D6500B8
:10831C0000000000000000008D660B007D660B0065
:10832C007F660B0000000000000000009F670B0040
:10833C0007680B00DD670B0091630B00CF670B0028
:10834C00A1670B00B1670B0001680B00C1670B0044
:10835C0099670B000000000000000000A9680B00EA
:10836C0015690B00ED680B0091630B00BD680B00E9
:10837C00D9680B00CB680B00E7680B00AB680B00EF
:10838C00AF680B0000000000000000004D690B00FE
:10839C0097690B006F690B004F690B0077690B0035
:1083AC007F690B0087690B008F690B007769726915
:1083BC006E670072656376206572726F72203D2065
:1083CC002564000000000000000000008D6A0B0016
:1083DC00B16A0B009B6F0B00BF6A0B00916A0B001C
:1083EC0000000000000000000D410B0041410B009B
:1083FC00096A0B00236A0B00316E0B004D6A0B00EF
:10840C00A76C0B00816A0B00396D0B00796B0B00AC
:10841C00D56C0B00E56E0B00756C0B00836A0B00C2
:10842C00356A0B00C56A0B00596B0B00000000008D
:10843C0000000000FF6F0B00F56F0B00EB6F0B00E3
:10844C00A16F0B00DF6F0B00D36F0B005D700B0087
:10845C0065700B00C76F0B00BF6F0B00B56F0B0087
:10846C00AB6F0B0095700B000000000000000000CB
:10847C001D700B0027700B0031700B003B700B0054
:10848C0045700B0051700B005D700B0065700B009C
:10849C006D700B0079700B0081700B008B700B00F2
:1084AC0095700B0000537431395F53705F6D616BC5
:1084BC00655F7368617265645F74616700000000DA
:1084CC000C850B00B1840B006C850B00E0840B0059
:1084DC0090850B004E31305F5F637878616269760E
:1084EC003131375F5F636C6173735F747970655F93
:1084FC00696E666F4500000000000000D4840B001C
:10850C0039740B004D740B00E1750B00E1750B0019
:10851C00B7740B00F9730B009F740B0061740B00A4
:10852C002B740B006C850B003C850B00D4840B006A
:10853C004E31305F5F637878616269763132305FDB
:10854C005F73695F636C6173735F747970655F6986
:10855C006E666F45000000000000000030850B00C7
:10856C00E1740B00F5740B00E1750B00E1750B0069
:10857C00B7740B00F9730B00B5750B0041750B004C
:10858C0009750B000C850B0098850B00537439741E
:10859C007970655F696E666F005245454E54206D6B
:1085AC00616C6C6F632073756363656564656400EF
:1085BC002F6D6E742F776F726B73706163652F778D
:1085CC006F726B73706163652F4743432D31302D90
:1085DC00706970656C696E652F6A656E6B696E7318
:1085EC002D4743432D31302D706970656C696E6574
:1085FC002D34385F32303230313132345F313630F5
:10860C00363138303634312F7372632F6E65776C98
:10861C0069622F6E65776C69622F6C6962632F7368
:10862C0074646C69622F72616E642E6300000000CA
:10863C000D490B00914E0B00495F0B00DD600B00E8
:10864C0081630B000D650B001D650B0039650B007C
:10865C0009700B006D710B000000000000000000A1
:04866C00000000000A
:10867000040000001400000003000000474E5500F5
:108680002329F5C805B30A2B1BF166C0B29FC3228C
:04869000DCE7C33D23
:0486940000000000E2
:10869800C8AF0000E45700008CB900008813000040
:1086A80050C300001027000011000000B87C0B0028
:1086B800C57C0B00D27C0B00DF7C0B00EC7C0B0034
:1086C80001C00000000103070F1F3F7F0080C0E0CA
:1086D800F0F8FCFE000000000000000000000000B0
:1086E8000000000000000000000000000000000082
:1086F8000000000000000000000000000000000072
:108708000000000000000000000000000000000061
:1087180000000080808000000000000000000000D1
:1087280000000000008080C0C000000000000000C1
:108738000000000000000000000000000000000031
:108748000000000000000000000000000000000021
:108758000000000000000000000000000000000011
:10876800000000000000000080C0E0F0F8FCF8E025
:1087780000000000000000000000000000000000F1
:1087880000808080808000808000000000808080E1
:10879800808000FFFFFF00000000808080800000D4
:1087A8008080000080FFFF808000808000808080C3
:1087B800800080800000000000808000008C8E8493
:1087C800000080F8F8F880000000000000000000B9
:1087D80000000000F0F0F0F0F0F0F0F0F0F0F0F051
:1087E800E0E0C08000E0FCFEFFFFFF7FFFFFFFFF2F
:1087F800FF0000000000000000000000000000FE74
:10880800FFC70101010183FFFF00007CFEC70101D2
:10881800010183FFFFFF0038FEC78301010183C701
:10882800FFFF000001FFFF010100FFFF0701010139
:1088380000007FFF80000000FFFF7F0000FFFFFFB8
:10884800000001FFFFFF0100000000000000000021
:1088580000000000030F3F7F7FFFFFFFFFFFFFFFC8
:10886800E7C7C78F8F9FBFFFFFC3C0F0FFFFFFFFA2
:10887800FFFCFCFCFCFCFCFCFCF8F8F0F0E0C000A1
:1088880001030303030301030300000000010303C2
:1088980003030101030100000001030303030101B5
:1088A80003030000000303000000030300000000AE
:1088B800000000010303030303010000000103019A
:1088C8000000000303010000000000000000000099
:1088D8000000000000000080C0E0F0F9FFFFFFFF8B
:1088E800FF3F1F0F87C7F7FFFF1F1F3DFCF8F8F872
:1088F800F87C7DFFFFFFFFFFFFFFFF7F3F0F0700B3
:1089080030300000000000000000000000000000FF
:108918000000000000000000FEFEFC000000000057
:10892800000000000000000000000000000000003F
:1089380000E0C0000000000000000000000030302F
:10894800000000000000000000000000000000001F
:108958000000000000C0FEFFFFFFFFFFFFFFFFFF5A
:108968007F7F3F1F0F071F7FFFFFF8F8FFFFFFFF05
:10897800FFFEF8E000000001000000000000000019
:10898800FEFE000000FCFEFC0C06060EFCF80000D3
:10899800F0F81C0E0606060CFFFFFF0000FEFE00A6
:1089A800000000FCFEFC00183C7E66E6CE84000059
:1089B80006FFFF0606FCFEFC0C0606060000FEFE8F
:1089C8000000C0F8FC4E4646464E7C7840183C767F
:1089D800E6CECC800000000000000000000000008F
:1089E800000000000000000001070F1F1F3F3F3F6D
:1089F8003F1F0F03000000000000000000000000FF
:108A08000F0F0000000F0F0F000000000F0F0000F5
:108A180003070E0C18180C060F0F0F0000010F0E9D
:108A28000C180C0F070100040E0C180C0F0700009F
:108A3800000F0F00000F0F0F0000000000000F0FC5
:108A480000000007070C0C181C0C060600040E0C8E
:108A5800180C0F07000000000000000000000000D4
:108A680000000000000000000000000000000000FE
:108A780000000000000000000000000000000000EE
:108A880000000000000000000000000000000000DE
:108A980000000000000000000000000000000000CE
:108AA80000000000000000000000000000000000BE
:108AB80000000000000000000000000000000000AE
:108AC800000000000000000000000000000000009E
:108AD8000000000014830B0080E503200000000064
:108AE800000000000000000000000000000000007E
:108AF800000000000000000000000000000000006E
:108B0800000000000000000000000000000000005D
:108B1800000000000000000000000000000000004D
:108B2800000000000000000000000000000000003D
:108B3800000000000000000000000000ECE7032037
:108B4800FFFFFFFF00000102030405060708090AEA
:108B58000B0C0D0E0F101112131415161718191AE5
:088B68001B1C1D1E1F2028002C
:048B700078563412ED
:04000003B000401CED
:00000001FF
