:02000002B0004C
:1040000000400B0040860B00000006000C0005027B
:084010000401A60F00000000EE
:04401800A8740B007D
:10401C0009480A49884208B505D0094A824202D0AB
:10402C00121A03F077F90748074A0021121A03F015
:10403C007FF9014808BD00BF34E1032068810B0003
:10404C00E4E50320E4E50320EDE7032070B5074E1B
:10405C00074C02F05DF9A41BA4080025AC4200D16A
:10406C0070BD56F8043B98470135F7E718810B00F3
:10407C0040810B0000F0F0B908B500F08FFABDE8F4
:10408C00084002F0FDB801F06FBD01F06DBD01F00C
:10409C0073BD000008B5034A03490C2001F0B0FCC5
:1040AC00FEE700BFED560B00BC740B000078B0FAB5
:1040BC0080F04009704701230370704770B50C1EE7
:1040CC00064615460BDA0A2A09D12D2102F008F80A
:1040DC006142EAB23046BDE8704002F01AB821469F
:1040EC00F7E70EB403B503AB002153F8042B01938F
:1040FC0002F02DF802B05DF804EB03B0704700003D
:10410C0038B584690A4B036005467CB16368013B92
:10411C0063605BB9236820469B689847A368013BA2
:10412C00A3601BB923682046DB689847284638BD36
:10413C00D07E0B0010B50446FFF7E2FF20461C2191
:10414C00FFF7A5FF204610BD1FB52549044668465C
:10415C0001F0E9FE02F0FEF922462249FFF7C1FF09
:10416C002149684601F049FF204A2149128851F83B
:10417C0024102048002302F07BFB28B31E491D4865
:10418C0001F0BDFF1D491B4801F0B9FF1C4919483E
:10419C0001F0B5FF1B49174801F0B1FF1A4915484A
:1041AC0001F09AFF029913480A2201F0B2FF11485C
:1041BC0001F099FF0F4801F096FF00990D4801F0AE
:1041CC008BFF0C4801F08FFF0A4802F0CFFB10B1B7
:1041DC00084802F003FD684601F05AFE04B010BD19
:1041EC0091770B00D1740B00DF740B0064E103209A
:1041FC0050E103202CE603200B760B0033760B00EA
:10420C0059760B0096760B00AD760B002DE9F0413C
:10421C008CB005460F4668467749DDF84880144651
:10422C001E4601F080FEDFF828E27449DEF800300B
:10423C007348744ADFF81CC2AB4219D10B68BB42FD
:10424C0016D10368A34213D11368B34210D1DCF822
:10425C00003043450CD102F07DF96B49FFF741FF6B
:10426C000024684601F014FE20460CB0BDE8F08135
:10427C00CEF800500F6004601660CCF80080002F60
:10428C0000F0B5806149684601F07BFE694608A8DC
:10429C0001F06CFE0A22414604A801F084FE04A938
:1042AC0008A801F0C8FE5A4901F0D1FE0146684643
:1042BC0001F04DFE04A801F0EBFD08A801F0E8FDAB
:1042CC00694608A801F052FE0A22314604A801F002
:1042DC006AFE04A908A801F0AEFE4E4901F0B7FE33
:1042EC000146684601F033FE04A801F0D1FD08A890
:1042FC0001F0CEFD694608A801F038FE0A222146DD
:10430C0004A801F050FE04A908A801F094FE42494B
:10431C0001F09DFE0146684601F019FE04A801F06B
:10432C00B7FD08A801F0B4FD3C493D4800235022DC
:10433C0002F09EFA0446002893D002F00BF939499A
:10434C0001F0DDFE02F006F9009901F0D8FE3649C5
:10435C00334801F0C1FE3549314801F0BDFE344906
:10436C002F4801F0B9FE0A222D482946FFF7A6FE78
:10437C0030492B4801F0C3FE2F49294801F0BFFEFC
:10438C002E49274801F0A8FE2449254801F0B7FE24
:10439C002B49234801F0A0FE0A220299204801F083
:1043AC00B8FE1F4801F09FFE26491D4801F0A7FEEC
:1043BC001B4801F098FE0099194801F0A0FE02F08C
:1043CC00C9F8214901F09BFE02F0C4F814490446D7
:1043DC0008A801F003FF0899204601F090FE08A8F8
:1043EC0001F056FD0E4802F0F9FB012439E717499C
:1043FC00684601F0C6FD97E791770B0050E6032065
:10440C0058E6032048E60320BE760B00DA760B0054
:10441C00EC760B00F4760B0007770B0000780B00A2
:10442C00E4E5032009770B0020770B00D7770B000E
:10443C002A770B0033770B00A2760B0043770B0027
:10444C00AD760B004A770B0071770B00FC760B00F6
:10445C004CE6032054E6032030B5494895B000F0F3
:10446C00B4F9474800F0EAF902F016FE02F034F90C
:10447C0002F070F84FF4165102F05CF83C224148FF
:10448C00022100F040FE3F48012101F0BEF83D48FA
:10449C00012101F0BFF8002211463A4801F0B2F8B0
:1044AC0039493848FFF71DFE01223648002101F03A
:1044BC00B4F83448012101F0A8F80021112002F0D1
:1044CC0019FD0321084602F015FD02F043F84FF4E4
:1044DC00165102F02FF8002001F01AF943F6982536
:1044EC000446002001F014F9001B61F10001A84200
:1044FC0071F1000307D202F02DF802F01FF810B989
:10450C0001F022FBEDE702F025F8204C204D02F0E3
:10451C0015F800231A461946606801F0CDFA3822C6
:10452C00002106A802F004FF4C230193194B0293BF
:10453C000A220023CDE90323194601AA60680593DA
:10454C0001F0DAFA002360681A46194601F094FA71
:10455C0000226068114601F097FA28B101F0FAFFC9
:10456C002946FFF7BEFDF3E74FF47A7001F05CFECD
:10457C0001F0F0FF0849FFF7B4FD15B030BD00BFE6
:10458C0094E6032060E603207A770B0018E70320FB
:10459C008D770B0082770B008F770B002DE9F043A2
:1045AC00454E464FDFF82891DFF82881002385B06F
:1045BC003360316810297BDC4FF4004289B23846F5
:1045CC0000F0E8FA0F21384600F027FB384600F0DF
:1045DC0035F9B9F800003A4D02F0C9FC0121C8F8D0
:1045EC0000000E2002F097FC01F0B4FFD8F8002078
:1045FC003449FFF776FD032002F0A6FC324B00286D
:10460C0014BF012200221A70304B1EBF1A7882F0A0
:10461C0001021A701978FF2449B30420FFF794FDA6
:10462C002A680094234601210520FFF7EFFD0121A4
:10463C002A68009423460846FFF7E8FD2A68009490
:10464C00234601210220FFF7E1FD2A68009423464E
:10465C0001210320FFF7DAFD2A680094234601218B
:10466C000420FFF7D3FD336801333360A1E72A68D8
:10467C000094234605200391FFF7C8FD2A6803998F
:10468C00009423460120FFF7C1FD2A68039900948A
:10469C0023460220FFF7BAFD2A68039900942346AB
:1046AC000320FFF7B3FD2A68039900942346D7E74C
:1046BC0005B0BDE8F08300BFA8E6032094E6032014
:1046CC0038E1032092770B005CE60320B0E6032070
:1046DC004CE10320ACE6032010B51D4802F0C8FAEB
:1046EC001C491D4801F01FFC1C4A1D4B12681A6026
:1046FC001C4A1D4812685A601C4A12689A601C4A6F
:10470C001268DA601B4A12681A611B4A12685A61F5
:10471C001A4A12689A6102F0ABFA4FF0FF3118484E
:10472C0000F06CFC102102230822164800F074F8EB
:10473C00154B164A9A600024C3E90044022001F08C
:10474C006FF921460120BDE8104001F079B900BF96
:10475C002CE6032091770B0084E603201CE6032053
:10476C0000E6032040E10320E4E5032048E10320B8
:10477C0038E1032034E103203CE1032044E1032031
:10478C0060E6032094E6032020E603200000FFFFF0
:10479C0038B50446C0680D4608B101F0EDF9A379AF
:1047AC00062B0CBF0420032010FB05F080B2A08068
:1047BC0001F0DAF9E06028B1A288002102F0B8FD1E
:1047CC00658038BDA0806080FBE710B504460121F0
:1047DC00C07902F08FFBE079002102F09CFB0123F1
:1047EC00237010BD37B5037805460C461BB1C07954
:1047FC00002102F07FFB2B78EC715BB1A0B20121A0
:10480C00019002F077FB0198002103B0BDE8304025
:10481C0002F081BB03B030BD70B5002504461646CE
:10482C008371C0E9035505700572FFF7B1FF20468F
:10483C003146FFF7D7FF204670BD0000C368002B40
:10484C0000F0A4812DE9F04F8379023BDBB2042BFD
:10485C009CBFBF4A52F8234085B0054688BF32241E
:10486C0000F046FF2B69C01AA042F9D3B94CAE88B0
:10487C00D4F800351BB9D4F86035002B7EDBB64C70
:10488C00D4F8003523B9D4F86035002BC0F26E8112
:10489C00B24CD4F80035002B00F04481EB79B04ACF
:1048AC00B04C1268190102EB0313575CAE495B78EC
:1048BC00D1F8FC2042F08072C1F8FC20226803F091
:1048CC001F0343EA471301273A432260A988D5F80E
:1048DC000C80D4F804909F40002944D04FF0000E77
:1048EC0072464FF0A04118F801CB0820802663686F
:1048FC009B1A462BFBD96268D1F808351CEA060FC7
:10490C0043EA0703C1F808352FD063689B1A282B9C
:10491C00FBD9D1F80C35013843EA07034FEA5606A8
:10492C00C1F80C35E3D1AB880EF1010E1FFA8EFEE7
:10493C007345D8D84FF4307103FB01F163689B1AAF
:10494C00462BFBD96368A3EB09098945C0F0E480C9
:10495C004FF4967000F0C4FEA988D5F80C80D4F8FA
:10496C0004900029BAD10A46E8E763689B1A112B18
:10497C00CFD863689B1A112BF7D9CAE7D4F86435E2
:10498C00002BBFF67CAFD4F86835002BBFF677AFA1
:10499C00D4F86C35002BBFF672AF3601331D1846B8
:1049AC00009301F0E1F800283FF478AFAB88002BBE
:1049BC0000F0ED80EA68013B12FA83F702F1FF3E4A
:1049CC00002348F2060248F20D011EF801CF1CF03C
:1049DC00800F0CBF93468B461CF0400F0CBF164645
:1049EC000E461CF0200F0CBF9046884603F10109BF
:1049FC00CDF80880019603F102081FFA89F9019E8F
:104A0C0020F813B01FFA88F820F81960029E20F8DD
:104A1C00186003F103081CF0100F1FFA88F80CBF84
:104A2C0093468B4620F818B003F104081CF0080FCD
:104A3C001FFA88F80CBF93468B4620F818B003F188
:104A4C0005081CF0040F1FFA88F80CBF93468B4620
:104A5C0020F818B003F1080A03F1060807339BB2DB
:104A6C001CF0020F1FFA88F80CBF93468B46CDF84A
:104A7C000CA01CF0010F20F818B015BF20F8131073
:104A8C0020F813201FFA8AF3BDF80C3077459CD11F
:104A9C00591C023389B29BB249005B004FF40047AA
:104AAC004752009AC7522E4B56081F6800221423F7
:104ABC00C4F80425C4F80C25C4F80835C4F814252A
:104ACC00C4F81025C4F82005C4F82465C4F82825BA
:104ADC00C4F82C25EB7907EB031C1B010121FE5CB0
:104AEC009CF8013003F01F0343EA4613C4F8603509
:104AFC00C4F80015C4F81021A160D4F81031002BB3
:104B0C00FBD000234FF0FF32C4F81031C4F800354D
:104B1C00C4F8602501F030F800F0EAFD286105B01A
:104B2C00BDE8F08FD4F86035002BBFF6B7AED4F8E3
:104B3C006435002BBFF6B2AED4F86835002BBFF647
:104B4C00ADAED4F86C35002BBFF6A8AE25E700BF90
:104B5C000C780B0000C00140001002400020024005
:104B6C00B4E60320001000E000ED00E0D4F864355A
:104B7C00002BBFF68DAED4F86835002BBFF688AE8F
:104B8C00D4F86C35002BBFF683AE06E770470423D0
:104B9C00022183E743888B42F0B52DD9067AC2F304
:104BAC000743C2F30724D5B23EB173437443754334
:104BBC00C3F30723C4F307242D0A90F806C0C76873
:104BCC00BCF1060F0CBF042603264E43ACF1020CBD
:104BDC00B919BCF1060F1DD8DFE80CF0041C080451
:104BEC000F040400BC554B708D7005E0FE2B28BFE4
:104BFC00FE23BB554D708C70F0BDBB554C708D7049
:104C0C00037A120E13B9D2B2CA70F5E75A43C2F343
:104C1C000722F9E7BB554C70E6E7037A4A1CD2B27F
:104C2C00934270B51FD0013B13F0FF03C4680CD046
:104C3C00FF291FBF110201F1FF31B1FBF3F39BB24E
:104C4C0004BF4FF6FF71B1FBF3F325468688291B91
:104C5C0089B28E4206D929785943C1F3072105F848
:104C6C00011BF3E7027270BD08B500F0F1FC014BBB
:104C7C00186008BDB4E60320F0B5457EBDF81440BD
:104C8C00022D69D0032D00F09980012D6CD105897E
:104C9C00D2432A4412B2002A5DDBB0F90850954287
:104CAC0059DD0029BEBF5B181BB20021B0F90A0008
:104CBC00CD188542C4BF431A1BB2002B4BDDC1F388
:104CCC00C400DFF820C102EBC01211F00701DBB207
:104CDC000CEB02001AD0C1F10805404EEDB2AB420C
:104CEC00775D3FBFA5EB030EFF2646FA0EF6374065
:104CFC001CF80260012C0CBF3E43BE43AB420CF8C7
:104D0C00026028D308390B44DBB28030072B19D949
:104D1C00012C4FF0FF3518BF0025EDB200F18001DA
:104D2C001A46083AD2B2072A01F8805C01F18001D8
:104D3C00F7D8A3F10802C2F3C402013200EBC2108F
:104D4C0003F007033BB1264AD25C0378012C0CBF5D
:104D5C00134393430370F0BD4589D2432A44CD18C5
:104D6C000189491B12B209B2002AF4DBB0F90A50CE
:104D7C009542F0DD0029BEBF5B181BB20021B0F9D3
:104D8C000870CE18BE42C4BF6B1A1BB2002BE2DDFA
:104D9C00D010802510FB05111248014402F00700C9
:104DAC0001228240012CD2B20B440CD18B42D2D0C6
:104DBC0011F8010B104301F8010CF7E7CD184189EC
:104DCC00491B09B267E7D243D2B28B42C3D011F868
:104DDC00010B104001F8010CF7E700BF70E1032054
:104DEC0068E1032078E10320F0B5457EBDF814405E
:104DFC00022D34D0032D00F09B80012D37D1D51816
:104E0C000289521B12B20029C0F29180B0F90A50EB
:104E1C008D4240F38C80002ABEBF9B181BB200222F
:104E2C00B0F90870D618BE42C4BFAB1A1BB2002B27
:104E3C007DDDC810802510FB05224548024401F099
:104E4C00070001218140012CC9B2134475D19A424B
:104E5C006DD012F8010B084302F8010CF7E7058935
:104E6C00C9432944D5184289521B09B212B20029F0
:104E7C005DDBB0F908508D4259DD002ABEBF9B188E
:104E8C001BB20022B0F90A00D5188542C4BF831AA0
:104E9C001BB2002B4BDDC2F3C400DFF8B4C001EB36
:104EAC00C01112F00702DBB20CEB01001AD0C2F1F8
:104EBC000805284EEDB2AB42775D3FBFA5EB030E64
:104ECC00FF2646FA0EF637401CF80160012C0CBF89
:104EDC003E43BE43AB420CF8016028D3083A13445E
:104EEC00DBB28030072B19D9012C4FF0FF3518BFDE
:104EFC000025EDB200F180011A46083AD2B2072A19
:104F0C0001F8805C01F18001F7D8A3F10802C2F32B
:104F1C00C402013200EBC21003F007033BB10E4A8E
:104F2C00D25C0378012C0CBF134393430370F0BD88
:104F3C004589C943294409B265E7C943C9B29A42B4
:104F4C00F5D012F8010B084002F8010CF7E700BF8E
:104F5C0078E1032070E1032068E103207047000032
:104F6C00F8B50D1E064614461F462DDB00F05AFB05
:104F7C00A84229DD002C27DB304600F056FBA0426E
:104F8C0022DD304600F04CFB02281ED0032825D031
:104F9C00012804D13389E2431A442C4615B2002C63
:104FAC002246B8BFE21DD210802112FB01550E49DA
:104FBC00012204F007044B5702FA04F464B297423E
:104FCC000CBF2343A3434B55F8BD3189728901397A
:104FDC00E4434D1B14442DB224B2E0E77389013B2A
:104FEC005B1B25461CB2DAE778E1032010B52421BF
:104FFC000446FFF74CF8204610BD000038B540229F
:10500C0004460D46802100F02FFA064B2360FF2347
:10501C0084F8213063774FF6FF73E38384F82050D4
:10502C00204638BD28780B0013B50B4C2178BFF304
:10503C005B8F11F001010BD120460191FFF736F87F
:10504C00019928B1054800F00BFE2046FFF733F814
:10505C00024802B010BD00BFB8E60320BCE6032036
:10506C0007B590F8223043B10191FFF7DDFF0199AC
:10507C0003B05DF804EB00F0A7BE0B46817F407FC8
:10508C00012203B05DF804EB01F088BF38B590F94C
:10509C001D30013304460D461DD090F9210001212D
:1050AC0080B201F038FF94F91F00002180B201F0AA
:1050BC0032FF94F92100002180B201F02CFF294627
:1050CC002046FFF7CDFF94F921000121BDE83840BF
:1050DC0080B201F020BF01F0DFFF94F91B1001F04A
:1050EC0005FB01F0D9FF036800219B68984701F08C
:1050FC00D3FF036829469B68984701F0CDFFBDE8B4
:10510C00384001F0FABA38B590F91D300177013307
:10511C0004460D46C27600F0C98090F91F000121AB
:10512C0080B201F0E7FE94F92100012180B201F078
:10513C00E1FE94F82230002B00F0A68094F92100B7
:10514C00012180B201F0E7FEFFF76EFF012100F0B4
:10515C00A5FDFFF769FF102100F010FEFFF764FFBB
:10516C00002100F0AFFDFFF75FFF00F083FD94F925
:10517C002000012180B201F0BDFE94F92000012134
:10518C0080B201F0C8FE012001F04EF894F9200025
:10519C00002180B201F0BFFE0A2001F045F894F91D
:1051AC002000012180B201F0B6FE2046AE21FFF7AF
:1051BC006DFF2046D521FFF769FF20468021FFF7C0
:1051CC0065FF2046A821FFF761FF20463F21FFF72E
:1051DC005DFF2046D321FFF759FF20460021FFF742
:1051EC0055FF20464021FFF751FF8D212046FFF748
:1051FC004DFF012D0CBF102114212046FFF746FF57
:10520C0020462021FFF742FF20460021FFF73EFFFA
:10521C002046A121FFF73AFF2046C821FFF736FFB1
:10522C002046DA21FFF732FF20461221FFF72EFF2E
:10523C0081212046FFF72AFF012D0CBF9F21CF2192
:10524C002046FFF723FFD9212046FFF71FFF012D32
:10525C000CBF2221F1212046FFF718FF2046DB214D
:10526C00FFF714FF20464021FFF710FF2046A42132
:10527C00FFF70CFF2046A621FFF708FF2046AF21C1
:10528C00BDE83840FFF702BF94F91D00012180B240
:10529C0001F030FE94F91E00012180B201F02AFECB
:1052AC0094F82230002B3FF462AF47E701F0F4FE94
:1052BC0001F012FA5BE72DE9F04F85B01F46BDF9FE
:1052CC003880BDF83C30A8EB0209A7EB010AB9F114
:1052DC00000FB8BFC9F10009BAF1000FB8BFCAF18D
:1052EC00000AD14583460C46154604DD3A462C4649
:1052FC0047460D469046BC4205DD2A46454690463B
:10530C0022463C4617463E1BB2B20092A8EB050261
:10531C0082EAE271A1EBE271C6F3C03202FA86F6C0
:10532C004545B4BF01224FF0FF3201917610029235
:10533C00BC421CDCDBF800200393D145D2F8108072
:10534C00C7BF294622462A4621465846C047019ADD
:10535C00039BB61AB1B236B2002E05DA029A154486
:10536C00009A56182DB236B2013424B2E0E705B0DB
:10537C00BDE8F08F2DE9F347BDF82C800768BDF927
:10538C002890CDF800800446FF6916468A461D46D3
:10539C00B8472368CDF8008009F1FF323244DF6949
:1053AC0051462B46204612B2B8472368CDF80080F0
:1053BC009F6932464B4651462046B8476B1E03EB5D
:1053CC000A012368CDF828809D6932464B4609B204
:1053DC002046AC4602B0BDE8F047604737B5013B0C
:1053EC0013440468BDF8185001951BB2009364690E
:1053FC000B46A04703B030BD37B5BDF81850046854
:10540C00CDE90025013B0B4464691BB2A04703B0F6
:10541C0030BD2DE9F347BDF92890BDF82C80054629
:10542C0092460C46CE18B4420BDA2B68CDF80080AD
:10543C009F6921464B46524628460134B84724B250
:10544C00F1E702B0BDE8F08713B502680191B0F93D
:10545C000E100091546AB0F90C3000221146A0478E
:10546C0002B010BD7047000030B54281C2814FF0D0
:10547C00FF320024054D4261012244600560018128
:10548C00818104610283827630BD00BF5C7D0B009C
:10549C002DE9F04F2DED028B8DB007460491BDF830
:1054AC0060100591BDF864100691B0F90C100498C9
:1054BC009DF86850814252DDB7F90E1091424EDDD5
:1054CC00062111FB0504002C49DD02EBC504002C60
:1054DC0045DD03EB83030B9393B2079308339BB225
:1054EC00089100240993052C1CBF2C4B0B9A079E8A
:1054FC0016BF1B1900239B5C0393049AABB20A934F
:10550C0004FB05F313FA82F31BB204EB020A08EE58
:10551C00103AB0460FFA85F90FFA8AFA039BDB07AB
:10552C002FD5012D3B681FD1D3F810B0059B32B29B
:10553C0051463846D847039B5B0803930A9B0136B8
:10554C009844099BB6B2B3421FFA88F8E6D1089B7F
:10555C00013B013413F0FF0364B20893C3D10DB0C7
:10556C00BDEC028BBDE8F08F059ACDE9009218EEE8
:10557C00101AD3F824B00FFA88F24B463846D847A5
:10558C00D9E7DDE905239342D5D0012D3B6803D142
:10559C00D3F810B0069BCAE7069AE6E758780B00DA
:1055AC0030B50A2985B0044607D1027E638A03EB25
:1055BC00C20363820023238221E00D291FD0037EC6
:1055CC000293C38A0193838A0093B0F912200B468D
:1055DC00B0F91010FFF75CFF207E238A00EB40012E
:1055EC0003EB4103A17E1BB20246238239B1B4F90D
:1055FC000C106FF0050505FB00118B42D6DC012069
:10560C0005B030BD018242827047012938BF0121AB
:10561C0001767047C182818270478182C282704755
:10562C00407E7047B0F90C007047B0F90E0070471F
:10563C0008B5024B1B689B68019308BD6802030008
:10564C0008B5024B1B68DB68019308BD68020300B8
:10565C0008B5024B1B681B68019308BD2C020300A4
:10566C0008B5024B1B685B68019308BD2C02030054
:10567C0008B5024B1B689B68019308BD2C02030004
:10568C0008B5024B1B68DB68019308BD2C020300B4
:10569C0008B5024B1B681B69019308BD2C02030063
:1056AC0008B5024B1B685B69019308BD2C02030013
:1056BC0008B5024B1B681B6B019308BD2C02030041
:1056CC0008B5024B1B685B69019308BD6C020300B3
:1056DC0008B5024B1B685B68019308BD18020300F8
:1056EC0008B5024B1B68DB68019308BD1802030068
:1056FC0008B5024B1B681B69019308BD1802030017
:10570C0008B5024B1B685B69019308BD18020300C6
:10571C0008B5024B1B68DB6D019308BD1802030032
:10572C0008B5024B1B685B6C019308BD4802030073
:10573C0008B5024B1B685B69019308BD640203004A
:10574C0008B5024B1B681B6A019308BD6402030079
:10575C0008B5024B1B689B6A019308BD64020300E9
:10576C0008B5024B1B68DB68019308BD3C020300C3
:10577C0008B5024B1B681B69019308BD3C02030072
:10578C0008B5024B1B685B69019308BD3C02030022
:10579C0008B5024B1B689B69019308BD3C020300D2
:1057AC0008B5024B1B68DB69019308BD3C02030082
:1057BC0008B5024B1B681B6A019308BD3C02030031
:1057CC0008B5024B1B689B6A019308BD3C020300A1
:1057DC0008B5024B1B681B6C019308BD3C0203000F
:1057EC0008B5024B1B68DB68019308BD2802030057
:1057FC0008B5024B1B689B69019308BD2802030086
:10580C0008B5024B1B68DB69019308BD2802030035
:10581C0008B5024B1B681B6A019308BD28020300E4
:10582C0008B5024B1B685B6A019308BD2802030094
:10583C0008B5024B1B689B6A019308BD2802030044
:10584C0008B5024B1B68DB6A019308BD28020300F4
:10585C0008B5024B1B681B6B019308BD28020300A3
:10586C0008B5024B1B685B6B019308BD2802030053
:10587C0008B5024B1B681B6C019308BD2802030082
:10588C0008B5024B1B689B69019308BD38020300E5
:10589C0008B5024B1B68DB69019308BD3802030095
:1058AC0008B5024B1B681B6A019308BD3802030044
:1058BC0008B5024B1B689B6A019308BD38020300B4
:1058CC0008B5024B1B681B6B019308BD3802030023
:1058DC0008B5024B1B689B6B019308BD3802030093
:1058EC0008B5024B1B681B68019308BD300203000E
:1058FC0008B5024B1B689B68019308BD300203007E
:10590C0008B5024B1B68DB68019308BD300203002D
:10591C0008B5024B1B681B69019308BD30020300DC
:10592C0008B5024B1B685B69019308BD300203008C
:10593C0008B5024B1B68DB69019308BD30020300FC
:10594C0008B5024B1B681B6A019308BD30020300AB
:10595C0008B5024B1B685B6A019308BD300203005B
:10596C0008B5024B1B681B6C019308BD3002030089
:10597C0008B5024B1B685B6C019308BD3002030039
:10598C0008B5024B1B681B68019308BD4C02030051
:10599C0008B5024B1B685B68019308BD4C02030001
:1059AC0008B5024B1B681B69019308BD4C02030030
:1059BC0008B5024B1B685B69019308BD4C020300E0
:1059CC0008B5024B1B689B69019308BD4C02030090
:1059DC0008B5024B1B68DB69019308BD4C02030040
:1059EC0008B5024B1B681B6A019308BD4C020300EF
:1059FC0008B5024B1B689B6A019308BD4C0203005F
:105A0C0008B5024B1B685B6B019308BD6002030079
:105A1C0008B5024B1B681B6D019308BD60020300A7
:105A2C0008B5024B1B685B68019308BD200203009C
:105A3C0008B5024B1B685B69019308BD200203008B
:105A4C0008B5024B1B68DB6A019308BD20020300FA
:105A5C0008B5034B1B68D3F88830019308BD0000D0
:105A6C002002030008B5034B1B68D3F89430019354
:105A7C0008BD00002002030008B5024B1B685B68E0
:105A8C00019308BD4002030008B5024B1B689B68DC
:105A9C00019308BD4002030008B5024B1B68DB688C
:105AAC00019308BD4002030008B5024B1B681B693B
:105ABC00019308BD4002030008B5024B1B685B69EB
:105ACC00019308BD4002030008B5024B1B689B699B
:105ADC00019308BD4002030008B5024B1B68DB694B
:105AEC00019308BD4002030008B5024B1B681B6AFA
:105AFC00019308BD4002030008B5024B1B689B6A6A
:105B0C00019308BD4002030008B5024B1B681B6BD8
:105B1C00019308BD4002030008B5024B1B685B6B88
:105B2C00019308BD4002030008B5024B1B681B6CB7
:105B3C00019308BD4002030008B5024B1B685B6C67
:105B4C00019308BD4002030008B5024B1B689B681B
:105B5C00019308BD4402030008B5024B1B68DB6BC4
:105B6C00019308BD4402030008B5024B1B681B6877
:105B7C00019308BD1C02030008B5024B1B685B684F
:105B8C00019308BD1C02030008B5024B1B689B68FF
:105B9C00019308BD1C02030008B5024B1B685B6A2D
:105BAC00019308BD1C02030008B5024B1B68DB6B9C
:105BBC00019308BD1C02030008B5024B1B681B6C4B
:105BCC00019308BD1C02030008B5024B1B685B6CFB
:105BDC00019308BD1C020300002240681146FFF728
:105BEC0083BF002240681146FFF796BF4068002231
:105BFC00FFF78ABF4068002281F00101FFF76CBFFC
:105C0C00002340681A461946FFF75EBF0023406820
:105C1C001A461946FFF750BF002240681146FFF79D
:105C2C0043BF002240681146FFF72EBF4068002298
:105C3C000221FFF731BF002340681A46FFF71CBF53
:105C4C00024B03225A60024A1A607047C4E60320D2
:105C5C00947D0B000021FFF78BBE0021FFF780BE67
:105C6C0010B5044608462170FFF762FE00236360FE
:105C7C00204610BD13B504460078FFF7EEFF58B967
:105C8C00207801904FF6FF71FFF72AFE019802B0C1
:105C9C00BDE81040FFF7DEBF02B010BD13B50446DF
:105CAC0000780191FFF7D9FF019948B9207801904C
:105CBC00FFF71EFE019802B0BDE81040FFF7CABF07
:105CCC0002B010BD13B5044600780191FFF7C5FF73
:105CDC00019948B920780190FFF712FE019802B0A3
:105CEC00BDE81040FFF7B6BF02B010BD400830B59C
:105CFC001860002418688842E5B206D90134082CD3
:105D0C0002D040081860F5E70725024B5B5D137065
:105D1C0030BD00BFC87D0B002DE9F04188B00023D9
:105D2C000446007802930E461746FFF796FF054689
:105D3C0000BB94F800800146142203A801F0F8FA85
:105D4C000B232A4603A94046ADF80C30FFF700FEA2
:105D5C0004988DF8075002AB0DF1070207FB06F112
:105D6C00FFF7C4FF20789DF80710FFF7D1FD2078CE
:105D7C00FFF770FF029808B0BDE8F08138B5044613
:105D8C0000780D46FFF769FF0346D0B9616899B1F9
:105D9C000C4A12F8010B854202D00133082BF8D1C2
:105DAC000133DBB20122D9402046FFF7B5FF207842
:105DBC00BDE83840FFF74EBF20782946FFF7A8FD15
:105DCC00F5E738BDC87D0B0008B50078FFF7A8FDD6
:105DDC00C0B208BD054B02221A60054B054A9A60F9
:105DEC000020C3E90000FFF71BBE00BFD8E603206C
:105DFC00CCE603200000FFFF10B5044601F0E0FAEA
:105E0C00013823182046834206D90278197800F805
:105E1C00011B03F80129F6E710BD70B50C46911E65
:105E2C0022291DD8254630B9234430229D4210D258
:105E3C0005F8012BFAE7B0FBF2F602FB1600C1B233
:105E4C00092894BF30315731C9B205F8011B3046CF
:105E5C00E9E7002320462B70FFF7CEFF204670BDEC
:105E6C000020FCE738B5031E0C4615460EDAB3F1DC
:105E7C00004F4FF02D0214BF5842184601230A70F0
:105E8C002A461944FFF7C9FF204638BD0123F9E71C
:105E9C0010B504460068FFF76FFE204610BD10B524
:105EAC000446006808B1FFF767FE0023C4E901331C
:105EBC00236010BD38B504460D4600680131FFF76C
:105ECC0063FE10B1C4E90005012038BD10B50368AC
:105EDC00044623B143688B4201D3012010BD2046F8
:105EEC00FFF7E8FF0028F9D0A368002BF5D1226852
:105EFC001370F2E737B50D46114601920446FFF7D1
:105F0C00E5FF019A28B92046FFF7C9FF204603B0E8
:105F1C0030BDA2602946206801F0FCF92268A36814
:105F2C000021D154F2E7002313B5C0E90033044635
:105F3C008360037341B10846019101F041FA019964
:105F4C0002462046FFF7D6FF204602B010BD88421D
:105F5C0010B5044605D00B682BB18A681946FFF7BB
:105F6C00C9FF204610BDFFF79AFFFAE710B50023D2
:105F7C000446C0E9003383600373FFF7E8FF204653
:105F8C0010BD13B5044659B10846019101F018FA39
:105F9C00019902462046FFF7ADFF204602B010BD26
:105FAC00FFF77DFFF9E710B504468AB00023C4E97A
:105FBC000033A3602373084601A9FFF753FF01A91F
:105FCC002046FFF7DEFF20460AB010BD70B505462F
:105FDC000E4609B9002070BD6AB18468144421468C
:105FEC00FFF774FF0028F5D02868AB6831461844D9
:105FFC0001F0DEF9AC600120EDE713B5044608466C
:10600C0051B1019101F0DCF901990246204602B030
:10601C00BDE81040FFF7DABF02B010BD07B5002392
:10602C008DF80410012201A98DF80530FFF7CEFF81
:10603C0003B05DF804FB10B58A6809680446FFF7E5
:10604C00C5FF10B92046FFF72AFF204610BD13B537
:10605C00044629B92046FFF722FF204602B010BDA6
:10606C000846019101F0ACF9019902462046FFF770
:10607C00ADFF0028EED0F0E7024800230360FFF7E5
:10608C004FBB00BFDCE60320F8B506460D468F1863
:10609C000024BD420CD0336815F8011B9B683046B8
:1060AC009847031E01DB1C44F3E7002C08BF1C4679
:1060BC002046F8BD13B50446084659B1019101F0CC
:1060CC007FF923680199DB680246204602B0BDE8DF
:1060DC001040184702B010BD08B5FFF7EBFF08BD24
:1060EC0003689B68184738B50D210546FFF7F8FF84
:1060FC000A2104462846FFF7F3FF204438BD38B583
:10610C000546FFF7D7FF04462846FFF7ECFF20446F
:10611C0038BD30B58BB00023012A8DF8243098BFE0
:10612C000A2209AC0D46B1FBF2F101FB125303F04C
:10613C00FF03092B94BF30333733DBB2AA4204F888
:10614C00013DEFD92146FFF7B5FF0BB030BD2DE96E
:10615C00F04186B000AF05460E46381D142114469A
:10616C003B60FFF719FD13280ED8391D2846FFF7A1
:10617C00A1FF04461EB12846FFF7B5FF0444204694
:10618C001837BD46BDE8F08100F1080323F0070382
:10619C00E846ADEB030D2246411C3B686846FFF711
:1061AC00FBFC69462846FFF785FF0446C546E1E738
:1061BC0010B50446FFF7A4FAE060236820465B693B
:1061CC009847002808DAFFF79BFAE368C01AA3681F
:1061DC009842F2D34FF0FF3010BD000038B50D4699
:1061EC0007490446FFF79FFE2846FFF7E1FF00280A
:1061FC0004DBC1B22046FFF711FFF5E7204638BD9E
:10620C0091770B00014B024A1A607047E0E60320BD
:10621C00D87D0B00024B1A68024B1A60704700BF06
:10622C0078E50320E4E603200021FFF701BC000021
:10623C00014B00229A607047E8E60320014B18607E
:10624C00704700BF7CE5032008B50B4B43B100F051
:10625C0081F903681B699847002801DDAFF30080C2
:10626C00064B43B100F0D8FE03681B699847002821
:10627C0001DDAFF3008008BD00000000000000004D
:10628C0008B5FFF7E1FFFFF73BFA014B186008BDBB
:10629C0040E703200548064A064908B5121A01F0E2
:1062AC0039F8054B054A1A6008BD00BF00F40320FD
:1062BC0004F4032064810B0000F403201E1C279AB5
:1062CC0007B5002300931A466FF07701FFF7CAFB5E
:1062DC0003B05DF804FB000007B543880A2B08D017
:1062EC00502B0BD1094B1B684BB103B05DF804EB81
:1062FC001847FFF7E5FF03B05DF804FB002300939C
:10630C001A466FF07701FFF7ADFBF4E7FCE60320CC
:10631C0010B512480021FFF757FC114B1A68114BAE
:10632C009A42114B0CBF012200221A7001D0FFF7C8
:10633C00B1FFFFF7CDF9044601F002F80B4B13B196
:10634C002046AFF3008000210848FFF705FCBDE8AC
:10635C00104007480021FFF77BBB00BF49620B00D0
:10636C0000F403201E1C279AF8E60320000000000E
:10637C00E5620B00704710B518210446FDF787FE47
:10638C00204610BDF0B5037D062B8DB00E4600F1F6
:10639C0004074FF0000412D000F1080515F8011D98
:1063AC000A223046FFF7B5FEAF42044419D0002C48
:1063BC00F4D02E213046FFF793FE0444EEE72F2352
:1063CC006A4639460A208DF80040FFF7B1F9684655
:1063DC0000F0F6FF33680246DB68694630469847A2
:1063EC00044620460DB0F0BD10B5054B04461122F5
:1063FC0040F8043B002100F09BFF204610BD00BF7D
:10640C00007E0B000346074A10B543F8042B01F13C
:10641C00100251F8044B43F8044B9142F9D10A781D
:10642C001A7010BD007E0B00037D042B04D1406854
:10643C00003818BF01207047062B07D143683BB9C1
:10644C0083682BB9C3681BB90069F1E7002070475A
:10645C000120704710B59DF8084044EA032343EA35
:10646C00024242EA016104234160037510BD000041
:10647C0007B5064B0360CB7800938B784A78097884
:10648C00FFF7E8FF03B05DF804FB00BF007E0B00D4
:10649C00417470477047704708B50021007CFFF7C6
:1064AC008FFA40EAE07008BD08B50121007CFFF7C7
:1064BC0087FA40EAE07008BD08B5007CFFF778FA6F
:1064CC0020EAE07008BD08B5007CFFF769FA20EA05
:1064DC00E07008BD13B50446007C0191FFF768FA23
:1064EC000028019901DC607C20B1207CFFF770FA58
:1064FC0020EAE07002B010BD007CFFF771BA10B555
:10650C0014210446FDF7C3FD204610BD10B54FF411
:10651C007A73044608460021C4E90113044B236036
:10652C000123207463741146FFF72AFA204610BD2C
:10653C00147E0B00007C0022FFF72ABA007CFFF7C8
:10654C0057BA10B514220446002100F0F1FE204683
:10655C0010BD000010B50F4C88B003A8FFF7F1FF79
:10656C002178BFF35B8F11F001010FD1204601910F
:10657C00FDF79CFD019948B103AA0748FFF7C6FF38
:10658C002046FDF798FD054800F0BEFE024808B015
:10659C0010BD00BF00E7032004E70320A1640B003B
:1065AC0070474174704708B5007CFFF709F920EA81
:1065BC00E07008BD08B5007CFFF7DAF820EAE0705F
:1065CC0008BD08B5007CFFF7E3F840EAE07008BDB1
:1065DC0008B5007CFFF7D4F840EAE07008BD007CF9
:1065EC00FFF7DEB837B5457C04462DB1207C03B0EF
:1065FC00BDE83040FFF7B4B8007C0191FFF7E0F83C
:10660C0000280199F2DC284603B030BD10B51421E6
:10661C000446FDF73CFD204610BD000010B54FF4BC
:10662C007A730446084611460022C4E90123044B40
:10663C002360012320746374FFF7CAF8204610BD51
:10664C00447E0B007047F8B5064615460C468F186D
:10665C00BC4206D0336814F8011B9B68304698473F
:10666C00F6E72846F8BD007C0022FFF7D1B8007C85
:10667C000021FFF7D5B8007C0021FFF7D9B8007CCA
:10668C000021FFF7DDB8007C0021FFF7E1B810B561
:10669C0014210446FDF7FBFC204610BD38B504461A
:1066AC0015464FF47A730022C4E90123094B217477
:1066BC00084623602946FFF7DBF8BF3008D16B6929
:1066CC00DB0705D56868FFF757FAE868FFF754FA57
:1066DC00204638BD747E0B000023007C1A461946F8
:1066EC00FFF77EB8007C0022FFF782B8C9B2FFF733
:1066FC00F9BF007C0022FFF783B80121FFF7F9BF37
:10670C0013B503688DF80710DC6B01224FF0FF33D3
:10671C000DF10701A04702B010BD10B40368DC6B8B
:10672C004FF0FF33A4465DF8044B604713B5134696
:10673C0002688DF80710D46B0DF107010122A047F8
:10674C0002B010BD10B54369B3F88620B3F884309D
:10675C009A42044608D06369B3F88420511CA3F80C
:10676C0084101344187910BD03681B6998470028DE
:10677C00F1D14FF0FF30F6E7704743691868C0431A
:10678C00C00F704770470000064B994210B500F1DE
:10679C000C0405D0084600F0A5FC002808BF002416
:1067AC00204610BDD07D0B0010B5AC210446FDF782
:1067BC006EFC204610BDAC21FDF769BC2DE9F04103
:1067CC004FF0000886B01C46C0F8048005460E4603
:1067DC0017464146102202A800F0AAFD631C09D0FE
:1067EC004FF47A73B4FBF3F203FB1244CDE90228A5
:1067FC005C430494686910230093006802AB41F277
:10680C00050240F6FF71FFF73BF8002807DAFFF7A7
:10681C00CBF903686B60002006B0BDE8F0816869B5
:10682C00002300683A463146FFF74AF8031EEEDBB8
:10683C001846F1E730B587B0044601AD6846FFF75E
:10684C0017FE0FCD04340FC42B68237007B030BD76
:10685C0070B54D69054B04468C3544F8043B06462F
:10686C000FCD0FC42B682370304670BD007E0B001B
:10687C002DE9F0439846036893B00D460024DB6A7B
:10688C0006461746984728466B46224621460094F2
:10689C00FEF7D6FE0546002863D1009B002B4BD09B
:1068AC005B69002B48D006A8FFF79EFD009B5C6936
:1068BC006378022B04D1211D06A8FFF7BBFF26E04D
:1068CC000A2B24D11122294601A800F031FDA3681E
:1068DC00002B38D004F108030DF1040C183418689F
:1068EC005968624603C20833A3429446F7D1062383
:1068FC0001A90CA88DF81430FFF784FD0DF1340CB0
:10690C00BCE80F0007AC0FC4DCF80030237006A8FD
:10691C00FFF78AFD80B1336807ADD3F82090124B96
:10692C000C930FCD0DAC0FC42B6823703A46434625
:10693C000CA93046C84705460098FEF779FE284654
:10694C0013B0BDE8F083E368002BC3D14FF6FF70A2
:10695C00D4F81090FEF7F4FE8145BBD104F114017C
:10696C00AAE72546E8E700BF007E0B0038B543696F
:10697C001A68002A054610DAB3F88620B3F884307A
:10698C009A420AD103681B699847044628B92B68B8
:10699C002846DB6A9847204638BD0120FCE710B535
:1069AC004369B3F88620B3F884309A42044605D084
:1069BC006369B3F884201344187910BD03681B690C
:1069CC0098470028F4D14FF0FF30F6E7F8B543694B
:1069DC001746B3F88620B3F884309A4205460E4623
:1069EC0016D06969B1F88430B1F88640E41ABC421B
:1069FC0028BF3C46043322461944304600F08AFC3A
:106A0C006A69B2F884302344A2F884302046F8BD79
:106A1C0003681B6998470028E3D14FF0FF34F5E772
:106A2C0042690023A2F884304269A2F8863070478C
:106A3C002DE9F0411F4603680C46DB6A8AB0054617
:106A4C0016469847237DD5F81480042B0CBF0220E2
:106A5C000A2006220121FEF73BFFC8F800006B69F3
:106A6C001B68002B08DA2B682846DB6A0024984741
:106A7C0020460AB0BDE8F0812846FFF7D1FFB7B138
:106A8C00002303A9F8B20393ADF81030FEF718FEFB
:106A9C000028E8D1686906230093006803AB41F233
:106AAC000B0240F6FF71FEF7EBFE0028DBD11C2237
:106ABC00002103A800F03CFC237D042B1DD14FF4D6
:106ACC0007733046ADF80C30FEF742FEADF80E0001
:106ADC006068FEF735FE04906B691C22186803A9E8
:106AEC00FEF7DEFE0028BED104340FCC6D698C3568
:106AFC000FC523682B700124BAE740F61C233046DF
:106B0C00ADF80C30FEF724FE05AEADF80E00231DDB
:106B1C0004F1140718685968324603C20833BB42A3
:106B2C001646F7D1D8E7000030B54269B2F8863086
:106B3C008BB004462BB1B2F884209A4201D1FFF7F6
:106B4C006FFF61690868002818DBB1F886507F2D4B
:106B5C0014D804310823C5F180022944FEF7A8FE9D
:106B6C00002813DD6369B3F886200AB9A3F88420E2
:106B7C006369B3F886201044A3F886006369B3F800
:106B8C008600B3F88430C01A0BB030BDFFF70CF898
:106B9C0003680B2BF2D0FFF707F803680B2BEDD033
:106BAC0020230025CDE90235FEF7FEFF0368019393
:106BBC00084B0949009302AA2B463220FEF728FF06
:106BCC0063691868FEF764FE63694FF0FF321A6060
:106BDC00D4E700BF9B7E0B00947E0B0010B543697D
:106BEC0004461868002801DBFEF752FE63694FF07B
:106BFC00FF321A606069112200218C3000F098FB82
:106C0C002046BDE81040FFF70BBF10B5002304462B
:106C1C000160C0F884308830FFF7E6FB204610BDD9
:106C2C0073B500234FF47A72C0E901320E4A036146
:106C3C00026043610446AC200191FDF724FA051E65
:106C4C0005F10C0608D00123C5E90133074B019966
:106C5C002B603046FFF7D9FF2046C4E90565FFF7E6
:106C6C00DFFE02B070BD00BFD07E0B00B47E0B0007
:106C7C0010B54FF0FF310446FFF7D2FF204610BD90
:106C8C0010B504460068002801DBFEF701FE204623
:106C9C0010BD0C30FFF7F4BF002240681146FEF720
:106CAC0003BF002240681146FEF71EBF0022406859
:106CBC001146FEF731BF40680022FEF725BF406841
:106CCC00002281F00101FEF707BF002340681A463D
:106CDC001946FEF7F9BE002340681A461946FEF71E
:106CEC00EBBE002240681146FEF7CEBE4068002283
:106CFC000221FEF7D1BE002340681A46FEF7BCBE47
:106D0C00024B04225A60024A1A60704718E70320AB
:106D1C001C7F0B00002340681A46FEF7ADBE40688E
:106D2C0000220221FEF7B8BE002240681146FEF791
:106D3C00ABBE002240681146FEF7B6BE0023406889
:106D4C001A461946FEF7B8BE002340681A46194683
:106D5C00FEF7BABE40680021FEF7E6BE406800218F
:106D6C00FEF7EABE4068002281F00101FEF7B4BED6
:106D7C0040680022FEF7C8BE002240681146FEF7AC
:106D8C00CBBE002240681146FEF7AEBE2DE9F043A3
:106D9C0095B014460D460746FFF726FB00211C2232
:106DAC000DA8009100F0C4FA40230C9320466B46CA
:106DBC000CAA0021FEF744FC044600284BD10246E5
:106DCC0001216868FEF770FE022180462246686841
:106DDC00FEF76AFE009E81462146002E3BD000291C
:106DEC0039D17368022B03D00A2B11D0F669F4E762
:106DFC00B8F1000FFAD0716906A8043107ADFFF79E
:106E0C0037FB0FCD3C1D0FC42B6823704146EDE7BB
:106E1C00B9F1000FEAD07469102201A800F088FAC9
:106E2C0006238DF8143001AD04F1080318341868EA
:106E3C0059682A4603C20833A3421546F7D101A963
:106E4C0006A807ADFFF7DEFA0FCD3C1D0FC42B686B
:106E5C0023704946CAE70098FEF7EAFB384615B09E
:106E6C00BDE8F083024B034A1A6000225A60704757
:106E7C0020E70320587F0B00232813B502D90020EC
:106E8C0002B010BDA0F10B03022B1AD8174C2178BD
:106E9C00BFF35B8F11F001010BD120460191FDF77F
:106EAC0005F9019928B11248FEF7DAFE2046FDF7E4
:106EBC0002F90F4B1878FEF743FD0028DFD10120B3
:106ECC00DEE7012809D800F0E7F80021007CFEF786
:106EDC00C7FC80F00100C0B2D2E709380128EED817
:106EEC0000F09AF8007CFEF763FCF2E7B8E60320AA
:106EFC00BCE60320232838B504460D460AD8FF29E2
:106F0C0008D0FFF7B9FF28B129462046BDE8384024
:106F1C00FEF7AEBB38BD38B504460D46FEF7B0FBE8
:106F2C00FF2810D0062804D84D2323FA00F0C307FD
:106F3C0009D42046FFF7A0FF28B129462046BDE81A
:106F4C003840FEF7A5BB38BD10B50446FEF798FBDC
:106F5C00031FDBB2012B08D92046FFF78DFF20B1B0
:106F6C002046BDE81040FEF79BBB002010BD0D284D
:106F7C0010B504469CBF0E34A4B22046FFF77CFF2C
:106F8C0050B103212046FEF76BFB032804D12046A9
:106F9C00BDE81040FEF78CBB002010BD2DE9F04180
:106FAC0090461F46072406460D46C4F10701B8F16A
:106FBC00000F12D147FA01F101F001013046FFF741
:106FCC00AAFF01212846FFF7A6FF00212846FFF75C
:106FDC00A2FF013CE9D2BDE8F08147FA04F1EBE7EE
:106FEC007047000038B5044614252A46002100F0ED
:106FFC009FF925804025074925812846258200F0E8
:10700C006FF804496060284600F06AF8E06020469A
:10701C0038BD00BF8C7F0B0030B50E4D2978BFF307
:10702C005B8F11F0010487B011D12846FDF73EF8B3
:10703C0068B101A8FFF7D6FF01AA21460648FFF761
:10704C00EDFA2846FDF737F8044800F05DF90248E0
:10705C0007B030BD28E703202CE70320ED6F0B00B1
:10706C007047000038B50A4B0360012304464361A6
:10707C000849202000F034F8202560600549A560FF
:10708C00284600F02DF8C4E90305204638BD00BFA2
:10709C00180001008C7F0B0030B50E4D2978BFF322
:1070AC005B8F11F0010487B011D12846FCF7FEFF6D
:1070BC0068B16846FFF7D6FF6A4621460648FFF7D7
:1070CC00EDFA2846FCF7F7FF044800F01DF90248DA
:1070DC0007B030BD44E7032048E703206D700B0078
:1070EC00FCF7D3BF014900F0F9B800BFA87F0B0033
:1070FC007FB500241023CDE90234036815469E6940
:10710C0012686B46CDE90044B0479DF8043003F09B
:10711C000603062B03BF009B2B600120204604B006
:10712C0070BD0098904214BF0120062070470000EB
:10713C0010B5034B0360044600F0CDF8204610BD9B
:10714C00E87F0B0010B50446FFF7F2FF204608213C
:10715C00FCF79DFF204610BD2DE9F0411F46DDE9EF
:10716C000834DDF8188098450646154607D107996E
:10717C0000F0B4F818B165710020BDE8F081394613
:10718C00304600F0ABF80028F6D00123C4F800809C
:10719C002571A371F0E738B515461C4600F09EF832
:1071AC0020B10823E36006232560237138BD73B535
:1071BC0005460C4601921E4600F090F850B9032E7D
:1071CC0008D82368019A5B692946204602B0BDE8BD
:1071DC007040184702B070BD10B5034B03600446F5
:1071EC00FFF7A6FF204610BD48800B0010B50446E3
:1071FC00FFF7F2FF20460C21FCF749FF204610BD9B
:10720C00F7B5089F974205460E4614460AD0A86863
:10721C0002680897156A31462246AC4603B0BDE8B1
:10722C00F04060471946019300F058F8019B002884
:10723C00EDD0062003B0F0BD2DE9F14F0D461946F7
:10724C00DDE90A4BDDE90CA681461746984600F0AD
:10725C0045F890B1002D3460377109DB61198A450E
:10726C000CBF06210121B171002001B0BDE8F08FE7
:10727C000235F9D10123B371F6E7544506D15946CD
:10728C00484600F02BF808B17771EDE7D9F8080003
:10729C000368CDE90CA6CDE90A4BDC693A464346B6
:1072AC002946A44601B0BDE8F04F60472DE9F041F6
:1072BC0007460C4615461E46FFF76DFF48B9B868E1
:1072CC0003689F692A4633462146BC46BDE8F04117
:1072DC006047BDE8F081704700207047814208B5D7
:1072EC000ED0406803782A2B0CD049680B782A2BD7
:1072FC0008BF013100F052F8B0FA80F0400908BD27
:10730C000120FCE70020FAE7002301461A46184644
:10731C0000F05EB80A44914200F1FF3300D170478F
:10732C0010B511F8014B03F8014F9142F9D110BD82
:10733C0002440346934200D1704703F8011BF9E75E
:10734C0038B5104B1D68AB6B0446B3B91820FEF76B
:10735C000BFC0246A86320B90B4B0C484221FEF7EC
:10736C002BFC0B490B4BC0E900130B4B83600B231D
:10737C00838100210120C2E90401AB6B00221C6156
:10738C005A6138BD7CE5032081800B0098800B008E
:10739C000E33CDAB34126DE6ECDE050010F8012B8C
:1073AC0011F8013B012A28BF9A42F7D0D01A704736
:1073BC00034611F8012B03F8012B002AF9D1704771
:1073CC00034613F8012B002AFBD1181A0138704719
:1073DC002DE9F843DFF8B8800646D8F800001F46C0
:1073EC000D46914600F056F8254B1C6834B9254CD7
:1073FC001C60254B13B11B68C4F8883063681F2BC5
:10740C0007DDD8F8000000F047F84FF0FF30BDE87A
:10741C00F8834EB3D4F8880088B91C4B23B9D8F83C
:10742C00000000F038F8F0E74FF48470FEF79CFB96
:10743C000028F4D00023C0E94033C4F88800636806
:10744C0040F8239001229A4000EB8301D0F80031E0
:10745C001343C0F80031022EC1F8807002BFD0F87F
:10746C0004311343C0F804316368D8F800005A1C87
:10747C000233626044F8235000F00EF80020C6E797
:10748C00E8E703205CE7032000000000755B0B00BD
:10749C00E0E5032070477047704700001D400B006B
:1074AC0059400B0081400B0085400B000000000090
:1074BC0043616C6C206F6E207075726520766972FA
:1074CC007475616C005377697463684F4E2025693D
:1074DC00200A003C3F786D6C2076657273696F6E84
:1074EC003D22312E302220656E636F64696E673DDC
:1074FC00227574662D38223F3E3C733A456E766594
:10750C006C6F706520786D6C6E733A733D22687485
:10751C0074703A2F2F736368656D61732E786D6C80
:10752C00736F61702E6F72672F736F61702F656E42
:10753C0076656C6F70652F2220733A656E636F648D
:10754C00696E675374796C653D22687474703A2F58
:10755C002F736368656D61732E786D6C736F6170DA
:10756C002E6F72672F736F61702F656E636F646916
:10757C006E672F223E3C733A426F64793E3C753AFB
:10758C0053657442696E61727953746174652078C5
:10759C006D6C6E733A753D2275726E3A42656C6B0A
:1075AC00696E3A736572766963653A626173696391
:1075BC006576656E743A31223E3C42696E61727931
:1075CC0053746174653E313C2F42696E617279531C
:1075DC00746174653E3C2F753A53657442696E61F3
:1075EC00727953746174653E3C2F733A426F6479BF
:1075FC003E3C2F733A456E76656C6F70653E00505D
:10760C004F5354202F75706E702F636F6E74726FA2
:10761C006C2F62617369636576656E7431204854B2
:10762C0054502F312E3100436F6E74656E742D548F
:10763C007970653A20746578742F786D6C3B206393
:10764C006861727365743D7574662D3800534F41D3
:10765C0050414354494F4E3A202275726E3A42655E
:10766C006C6B696E3A736572766963653A626173C5
:10767C0069636576656E743A312353657442696E3D
:10768C0061727953746174652200436F6E6E656329
:10769C0074696F6E3A206B6565702D616C697665E7
:1076AC0000436F6E74656E742D4C656E6774683A2A
:1076BC0020004E6F204368616E6765202D2043616A
:1076CC006E63656C6C696E6720434D440A007B22C7
:1076DC006F6E223A747275652C22736174223A00B3
:1076EC002C22627269223A002C22687565223A00BB
:1076FC007B226F6E223A66616C73657D0053656EFA
:10770C0064696E6720436F6D6D616E6420746F20C9
:10771C0048756500505554202F6170692F002F6CEF
:10772C0069676874732F002F7374617465204854F3
:10773C0054502F312E3100486F73743A2000436F30
:10774C006E74656E742D547970653A207465787416
:10775C002F706C61696E3B636861727365743D5523
:10776C0054462D380046726F6D2048756500536580
:10777C00637572656400496F544E6574776F726BF4
:10778C00002E000A0A0025690D003139322E3136DF
:10779C00382E312E3330003139322E3136382E31ED
:1077AC002E3331003139322E3136382E312E3332E0
:1077BC00003139322E3136382E312E3333003139F7
:1077CC00322E3136382E312E3334004D516C5A7ADC
:1077DC0069524F30576169354D734D486C6C387830
:1077EC00415541517177383551727238744D333778
:1077FC00463354003139322E3136382E312E350085
:10780C002C01000018000000F40100002C01000005
:10781C00500000000000000000000000694F0B0049
:10782C00F94F0B00AD550B0095600B006D4F0B0025
:10783C00C3520B00F54D0B00854C0B0081530B0014
:10784C001F540B0055540B0071540B00000000002A
:10785C00003E5B4F5B3E3E6B4F6B3E1C3E7C3E1CCA
:10786C00183C7E3C181C577D571C1C5E7F5E1C0010
:10787C00183C1800FFE7C3E7FF0018241800FFE7C7
:10788C00DBE7FF30483A060E2629792926407F058A
:10789C000507407F05253F5A3CE73C5A7F3E1C1CA0
:1078AC0008081C1C3E7F14227F22145F5F005F5F60
:1078BC0006097F017F006689956A6060606060944C
:1078CC00A2FFA29408047E040810207E2010080851
:1078DC002A1C08081C2A08081E101010100C1E0C5C
:1078EC001E0C30383E3830060E3E0E0600000000EE
:1078FC000000005F00000007000700147F147F14D5
:10790C00242A7F2A12231308646236495620500019
:10791C0008070300001C2241000041221C002A1C05
:10792C007F1C2A08083E08080080703000080808F0
:10793C000808000060600020100804023E51494510
:10794C003E00427F400072494949462141494D332E
:10795C001814127F1027454545393C4A4949314195
:10796C00211109073649494936464949291E000063
:10797C0014000000403400000008142241141414B8
:10798C001414004122140802015909063E415D59A4
:10799C004E7C1211127C7F494949363E41414122AD
:1079AC007F4141413E7F494949417F090909013ED7
:1079BC00414151737F0808087F00417F41002040FE
:1079CC00413F017F081422417F404040407F021C10
:1079DC00027F7F0408107F3E4141413E7F09090927
:1079EC00063E4151215E7F091929462649494932F3
:1079FC0003017F01033F4040403F1F2040201F3FB9
:107A0C004038403F6314081463030478040361593D
:107A1C00494D43007F41414102040810200041417F
:107A2C00417F04020102044040404040000307082B
:107A3C000020545478407F28444438384444442827
:107A4C00384444287F385454541800087E090218CE
:107A5C00A4A49C787F0804047800447D4000204056
:107A6C00403D007F1028440000417F40007C04789A
:107A7C0004787C080404783844444438FC182424E2
:107A8C001818242418FC7C08040408485454542462
:107A9C0004043F44243C4040207C1C2040201C3CDF
:107AAC004030403C44281028444C9090907C4464D6
:107ABC00544C440008364100000077000000413669
:107ACC00080002010204023C2623263C1EA1A161EF
:107ADC00123A4040207A3854545559215555794121
:107AEC002154547841215554784020545579400CF8
:107AFC001E527212395555555939545454593955D9
:107B0C005454580000457C410002457D420001451B
:107B1C007C40F0292429F0F0282528F07C54554588
:107B2C00002054547C547C0A097F4932494949321B
:107B3C003248484832324A4848303A4141217A3A30
:107B4C0042402078009DA0A07D39444444393D40FA
:107B5C0040403D3C24FF2424487E4943662B2FFCA7
:107B6C002F2BFF0929F620C0887E09032054547955
:107B7C00410000447D413048484A32384040227A26
:107B8C00007A0A0A727D0D19317D2629292F2826A3
:107B9C002929292630484D402038080808080808AB
:107BAC000808382F10C8ACBA2F102834FA00007B04
:107BBC00000008142A142222142A1408AA005500C2
:107BCC00AAAA55AA55AA000000FF00101010FF0029
:107BDC00141414FF001010FF00FF1010F010F0141C
:107BEC001414FC001414F700FF0000FF00FF141421
:107BFC00F404FC141417101F10101F101F1414146D
:107C0C001F00101010F0000000001F101010101FAB
:107C1C0010101010F010000000FF101010101010B9
:107C2C00101010FF10000000FF140000FF00FF00F8
:107C3C00001F10170000FC04F41414171017141470
:107C4C00F404F40000FF00F714141414141414F7C3
:107C5C0000F7141414171410101F101F141414F41C
:107C6C00141010F010F000001F101F0000001F1463
:107C7C00000000FC140000F010F01010FF10FF14B6
:107C8C001414FF141010101F00000000F010FFFF60
:107C9C00FFFFFFF0F0F0F0F0FFFFFF00000000002E
:107CAC00FFFF0F0F0F0F0F38444438447C2A2A3E35
:107CBC00147E02020606027E027E0263554941636F
:107CCC003844443C04407E201E2006027E02029969
:107CDC00A5E7A5991C2A492A1C4C7201724C304A02
:107CEC004D4D303048784830BC625A463D3E49498B
:107CFC0049007E0101017E2A2A2A2A2A44445F4433
:107D0C004440514A444040444A51400000FF010362
:107D1C00E080FF000008086B6B083612362436062C
:107D2C000F090F060000181800000010100030405A
:107D3C00FF0101001F01011E00191D1712003C3C20
:107D4C003C3C0000000000000000000000000000AF
:107D5C000000000000000000AD550B0095600B000A
:107D6C00A1400B00C3520B00E9530B0005540B0050
:107D7C0081530B001F540B0055540B0071540B0016
:107D8C000000000000000000435C0B00395C0B009D
:107D9C002F5C0B00255C0B00195C0B000D5C0B00C1
:107DAC00616D0B00696D0B00015C0B00F95B0B0046
:107DBC00EF5B0B00E55B0B00996D0B0000081018D6
:107DCC0020283038000000000000000061707000B6
:107DDC0025592D256D2D25645425483A254D3A25D8
:107DEC0053257A0061736374696D650000000000AF
:107DFC000000000091630B0081630B0083630B0098
:107E0C000000000000000000A3640B000B650B00D9
:107E1C00E1640B0095600B00D3640B00A5640B00B0
:107E2C00B5640B0005650B00C5640B009D640B006D
:107E3C000000000000000000AD650B0019660B008F
:107E4C00F1650B0095600B00C1650B00DD650B0047
:107E5C00CF650B00EB650B00AF650B00B3650B003A
:107E6C00000000000000000051660B009B660B0038
:107E7C0073660B0053660B007B660B0083660B006E
:107E8C008B660B0093660B00776972696E670072E4
:107E9C00656376206572726F72203D202564000048
:107EAC00000000000000000091670B00B5670B009C
:107EBC009F6C0B00C3670B0095670B000000000064
:107ECC00000000000D410B0041410B000D670B0041
:107EDC0027670B00356B0B0051670B00AB690B0070
:107EEC0085670B003D6A0B007D680B00D9690B00A0
:107EFC00E96B0B0079690B0087670B0039670B0086
:107F0C00C9670B005D680B0000000000000000005A
:107F1C00036D0B00F96C0B00EF6C0B00A56C0B00E8
:107F2C00E36C0B00D76C0B00616D0B00696D0B00E3
:107F3C00CB6C0B00C36C0B00B96C0B00AF6C0B0063
:107F4C00996D0B000000000000000000216D0B007B
:107F5C002B6D0B00356D0B003F6D0B00496D0B004D
:107F6C00556D0B00616D0B00696D0B00716D0B0095
:107F7C007D6D0B00856D0B008F6D0B00996D0B00EB
:107F8C0000537431395F53705F6D616B655F73685B
:107F9C00617265645F74616700000000E87F0B002C
:107FAC008D7F0B0048800B00BC7F0B006C800B009E
:107FBC004E31305F5F637878616269763131375F5B
:107FCC005F636C6173735F747970655F696E666F04
:107FDC004500000000000000B07F0B003D710B005D
:107FEC0051710B00E5720B00E5720B00BB710B00BD
:107FFC00FD700B00A3710B0065710B002F710B0052
:10800C0048800B0018800B00B07F0B004E31305FA6
:10801C005F637878616269763132305F5F73695F74
:10802C00636C6173735F747970655F696E666F45BD
:10803C0000000000000000000C800B00E5710B003C
:10804C00F9710B00E5720B00E5720B00BB710B00B4
:10805C00FD700B00B9720B0045720B000D720B001A
:10806C00E87F0B0074800B00537439747970655F72
:10807C00696E666F005245454E54206D616C6C6F95
:10808C006320737563636565646564002F6D6E743E
:10809C002F776F726B73706163652F776F726B7371
:1080AC00706163652F4743432D31302D70697065C6
:1080BC006C696E652F6A656E6B696E732D474343F1
:1080CC002D31302D706970656C696E652D34385F9B
:1080DC0032303230313132345F3136303631383043
:1080EC003634312F7372632F6E65776C69622F6E25
:1080FC0065776C69622F6C6962632F7374646C6949
:10810C00622F72616E642E6300000000E5460B0066
:10811C00754C0B004D5C0B00E15D0B0085600B009A
:10812C0011620B0021620B003D620B000D6D0B0008
:04813C00716E0B0055
:10814000040000001400000003000000474E55002A
:1081500006FA3B1C829B269FAAA7A5AAA2CB0013C6
:04816000D95FBF58CC
:048164000000000017
:10816800C8AF0000E45700008CB900008813000075
:1081780050C30000102700001100000096770B0084
:10818800A3770B00B0770B00BD770B00CA770B0005
:1081980001C00000000103070F1F3F7F0080C0E0FF
:1081A800F0F8FCFE000000000000000000000000E5
:1081B80000000000000000000000000000000000B7
:1081C80000000000000000000000000000000000A7
:1081D8000000000000000000000000000000000097
:1081E8000000008080800000000000000000000007
:1081F80000000000008080C0C000000000000000F7
:108208000000000000000000000000000000000066
:108218000000000000000000000000000000000056
:108228000000000000000000000000000000000046
:10823800000000000000000080C0E0F0F8FCF8E05A
:108248000000000000000000000000000000000026
:108258000080808080800080800000000080808016
:10826800808000FFFFFF0000000080808080000009
:108278008080000080FFFF808000808000808080F8
:10828800800080800000000000808000008C8E84C8
:10829800000080F8F8F880000000000000000000EE
:1082A80000000000F0F0F0F0F0F0F0F0F0F0F0F086
:1082B800E0E0C08000E0FCFEFFFFFF7FFFFFFFFF64
:1082C800FF0000000000000000000000000000FEA9
:1082D800FFC70101010183FFFF00007CFEC7010108
:1082E800010183FFFFFF0038FEC78301010183C737
:1082F800FFFF000001FFFF010100FFFF070101016F
:1083080000007FFF80000000FFFF7F0000FFFFFFED
:10831800000001FFFFFF0100000000000000000056
:1083280000000000030F3F7F7FFFFFFFFFFFFFFFFD
:10833800E7C7C78F8F9FBFFFFFC3C0F0FFFFFFFFD7
:10834800FFFCFCFCFCFCFCFCFCF8F8F0F0E0C000D6
:1083580001030303030301030300000000010303F7
:1083680003030101030100000001030303030101EA
:1083780003030000000303000000030300000000E3
:1083880000000001030303030301000000010301CF
:1083980000000003030100000000000000000000CE
:1083A8000000000000000080C0E0F0F9FFFFFFFFC0
:1083B800FF3F1F0F87C7F7FFFF1F1F3DFCF8F8F8A7
:1083C800F87C7DFFFFFFFFFFFFFFFF7F3F0F0700E8
:1083D8003030000000000000000000000000000035
:1083E8000000000000000000FEFEFC00000000008D
:1083F8000000000000000000000000000000000075
:1084080000E0C00000000000000000000000303064
:108418000000000000000000000000000000000054
:108428000000000000C0FEFFFFFFFFFFFFFFFFFF8F
:108438007F7F3F1F0F071F7FFFFFF8F8FFFFFFFF3A
:10844800FFFEF8E00000000100000000000000004E
:10845800FEFE000000FCFEFC0C06060EFCF8000008
:10846800F0F81C0E0606060CFFFFFF0000FEFE00DB
:10847800000000FCFEFC00183C7E66E6CE8400008E
:1084880006FFFF0606FCFEFC0C0606060000FEFEC4
:108498000000C0F8FC4E4646464E7C7840183C76B4
:1084A800E6CECC80000000000000000000000000C4
:1084B800000000000000000001070F1F1F3F3F3FA2
:1084C8003F1F0F0300000000000000000000000034
:1084D8000F0F0000000F0F0F000000000F0F00002B
:1084E80003070E0C18180C060F0F0F0000010F0ED3
:1084F8000C180C0F070100040E0C180C0F070000D5
:10850800000F0F00000F0F0F0000000000000F0FFA
:1085180000000007070C0C181C0C060600040E0CC3
:10852800180C0F0700000000000000000000000009
:108538000000000000000000000000000000000033
:108548000000000000000000000000000000000023
:108558000000000000000000000000000000000013
:108568000000000000000000000000000000000003
:1085780000000000000000000000000000000000F3
:1085880000000000000000000000000000000000E3
:1085980000000000000000000000000000000000D3
:1085A80000000000F07D0B0080E5032000000000C3
:1085B80000000000000000000000000000000000B3
:1085C80000000000000000000000000000000000A3
:1085D8000000000000000000000000000000000093
:1085E8000000000000000000000000000000000083
:1085F8000000000000000000000000000000000073
:10860800000000000000000000000000ECE703206C
:10861800FFFFFFFF00000102030405060708090A1F
:108628000B0C0D0E0F101112131415161718191A1A
:088638001B1C1D1E1F20280061
:048640007856341222
:04000003B000401CED
:00000001FF
